:020000040800F2
:1000000000000120F1570008395100084151000853
:100010004351000845510008475100080000000006
:10002000000000000000000000000000495100082E
:100030004B510008000000004D5100084F510008CE
:10004000415800084158000841580008415800082C
:10005000415800084158000841580008415800081C
:10006000415800084158000841580008415800080C
:1000700041580008415800084158000841580008FC
:10008000415800084158000841580008000000008D
:1000900000000000000000000000000041580008BF
:1000A00041580008515100084158000841580008C3
:1000B00041580008415800084158000841580008BC
:1000C000415800084158000841580008855100086F
:1000D00041580008915100084158000800000000F4
:1000E000415800084158000841580008000000002D
:1000F000000000000000000000000000415800085F
:10010000000000004158000841580008415800080C
:1001100000000000000000000000000000000000DF
:10012000415800084158000841580008415800084B
:10013000415800080000000000000000000000001E
:1001400000000000000000000000000095510008C1
:10015000415800084158000841580008415800081B
:10016000415800084158000800000000000000004D
:10017000000000000000000000000000000000007F
:1001800000000000415800080000000000000000CE
:0401900041580008CA
:1001A00010B5054C237833B9044B13B10448AFF3B1
:1001B00000800123237010BD7C020020000000009D
:1001C0000462000808B5034B1BB103490348AFF3B1
:1001D000008008BD000000008002002004620008CA
:1001E00053B94AB9002908BF00281CBF4FF0FF319E
:1001F0004FF0FF3000F074B9ADF1080C6DE904CE9A
:1002000000F006F8DDF804E0DDE9022304B07047F1
:100210002DE9F047089D04468E46002B4DD18A42B9
:10022000944669D9B2FA82F252B101FA02F3C2F1EC
:10023000200120FA01F10CFA02FC41EA030E94407D
:100240004FEA1C48210CBEFBF8F61FFA8CF708FB9E
:1002500016E341EA034306FB07F199420AD91CEB76
:10026000030306F1FF3080F01F81994240F21C81A8
:10027000023E63445B1AA4B2B3FBF8F008FB1033F0
:1002800044EA034400FB07F7A7420AD91CEB040425
:1002900000F1FF3380F00A81A74240F207816444F5
:1002A000023840EA0640E41B00261DB1D44000237A
:1002B000C5E900433146BDE8F0878B4209D9002DDE
:1002C00000F0EF800026C5E9000130463146BDE868
:1002D000F087B3FA83F6002E4AD18B4202D38242D2
:1002E00000F2F980841A61EB030301209E46002D81
:1002F000E0D0C5E9004EDDE702B9FFDEB2FA82F2D6
:10030000002A40F09280A1EB0C014FEA1C471FFA33
:100310008CFE0126200CB1FBF7F307FB131140EA1A
:1003200001410EFB03F0884208D91CEB010103F1E7
:10033000FF3802D2884200F2CB804346091AA4B2A9
:10034000B1FBF7F007FB101144EA01440EFB00FE7D
:10035000A64508D91CEB040400F1FF3102D2A645E2
:1003600000F2BB800846A4EB0E0440EA03409CE781
:10037000C6F12007B34022FA07FC4CEA030C20FA2E
:1003800007F401FA06F31C43F9404FEA1C4900FA4E
:1003900006F3B1FBF9F8200C1FFA8CFE09FB1811CB
:1003A00040EA014108FB0EF0884202FA06F20BD93E
:1003B0001CEB010108F1FF3A80F08880884240F28E
:1003C0008580A8F102086144091AA4B2B1FBF9F0D2
:1003D00009FB101144EA014100FB0EFE8E4508D9CD
:1003E0001CEB010100F1FF346CD28E456AD9023852
:1003F000614440EA0840A0FB0294A1EB0E01A14237
:10040000C846A64656D353D05DB1B3EB080261EBA4
:100410000E0101FA07F722FA06F3F1401F43C5E97E
:10042000007100263146BDE8F087C2F12003D840B4
:100430000CFA02FC21FA03F3914001434FEA1C47F6
:100440001FFA8CFEB3FBF7F007FB10360B0C43EAE8
:10045000064300FB0EF69E4204FA02F408D91CEB98
:10046000030300F1FF382FD29E422DD90238634496
:100470009B1B89B2B3FBF7F607FB163341EA034136
:1004800006FB0EF38B4208D91CEB010106F1FF3885
:1004900016D28B4214D9023E6144C91A46EA00467C
:1004A00038E72E46284605E70646E3E61846F8E60E
:1004B0004B45A9D2B9EB020864EB0C0E0138A3E757
:1004C0004646EAE7204694E74046D1E7D0467BE738
:1004D000023B614432E7304609E76444023842E7B0
:1004E000704700BF034613F8012B002AFBD1181AEE
:1004F000013870470000000000000000000000000C
:1005000001F0FF01102A2BDB10F0070F08D010F8C4
:10051000013B013A8B422DD010F0070F42B3F6D1C8
:10052000F0B441EA012141EA014122F007047FF0E1
:1005300000070023F0E80256083C85EA010586EA38
:10054000010685FA47F5A3FA87F586FA47F6A5FA74
:1005500087F68EB9EED1F0BC01F0FF0102F0070280
:1005600032B110F8013B013A83EA010313B1F8D12B
:100570000020704701387047002D06BF354603380C
:10058000073815F0010F07D1013015F4807F02BF45
:10059000013015F4C03F0130F0BC0138704700BF96
:1005A00008B50F490F48002200F042FC08B104F0E2
:1005B00041FA0D490B4800F04EFC08B104F03AFA3C
:1005C0000A49084800F0DAFB08B104F033FA05489C
:1005D00000F05AFC18B1BDE8084004F02BBA08BD81
:1005E0001400002098020020640000200000002079
:1005F00000207047002070470020704710B5054C60
:100600000146204600F0D3FB204600F0F7FB002017
:1006100010BD00BF9802002010B5064C064900220C
:10062000204600F0B6FB0549204600F0C0FB002044
:1006300010BD00BF9802002074090020740500203E
:1006400010B5094CD4F8BC32D3F814320A4643B979
:100650000146204600F09DFB2046BDE8104000F01A
:10066000B2BB012010BD00BF980200201223014838
:100670000B80704730000020042301480B80704736
:1006800044000020002370B54D1C1E46040FB0F13D
:10069000204F34BF3034373401F8134005F813606D
:1006A0000133DCB2A2424FEA0010EFD870BD000067
:1006B0001A2310B50B800A4BD3F8100AD3F8182A66
:1006C00080180AD0D3F8144A06490822FFF7DAFF47
:1006D000042210312046FFF7D5FF034810BD00BFAC
:1006E0000070FF1F4A0000204800002010B5044C95
:1006F00004480A46214600F07EFF204610BD00BF98
:10070000740D00201C62000810B5044C04480A4611
:10071000214600F070FF204610BD00BF740D002080
:100720002F62000810B5044C04480A46214600F028
:1007300062FF204610BD00BF740D00204562000816
:1007400010B5044C04480A46214600F054FF2046E8
:1007500010BD00BF740D00205062000830B5044683
:1007600089B01422002103A805F0B4F82368B3F17E
:10077000A04F2ED1184C194800250195236B43F04A
:1007800001032363236B03F0010301934FF4C05271
:10079000019B0223CDE9032303210A23CDE906139C
:1007A00003A901F029F8636B43F0800363630295AA
:1007B000636C43F480436364636C03F4804302938B
:1007C00043202A462946029B00F0C4FF432000F044
:1007D000F3FF09B030BD00BF003802400000024006
:1007E00000F2C441D0F8080500F060BB242303FBED
:1007F0000103D0F80805D3F88C2200F087BB24232E
:1008000003FB0103D0F80805DA6C00F0B4BBD0F8A4
:10081000080500F04EBCC368022B10B5044601D099
:1008200004F008F9D4F80805012100F02AFCD4F8F6
:100830000805BDE8104000F0F5BB000010B5044607
:10084000D0F8080500F020FC2268D2F8003E43F002
:100850000103C2F8003E236A23B1034A136943F03F
:100860000603136110BD00BF00ED00E0D0F80805DD
:1008700000F014BCD0F8080500F03CBCD0F8080526
:1008800000F024BCD0F8080500F048BCD0F80805FA
:1008900000F046BC08B5037802462BBB13484FF066
:1008A000A041C0F80825C2F8C8020422C0E900121D
:1008B0000222C0E90323C0E90623C0E90833C0E9E6
:1008C0000B3301F066F808B104F0B4F88021074852
:1008D00001F0AEFD40220021044801F089FD0348EB
:1008E0008022012101F084FD002008BD740F00204A
:1008F00011F0800FD0F8C8324FF024021BBF01F076
:100900007F0102FB013102FB013191F83E0008BF7B
:1009100091F87E027047D0F8C80201F07DB900005E
:1009200000487047801400207047000003289ABFD9
:10093000014B185C032070475E62000808B5D0F8D0
:10094000C80201F0ABF8BDE80840FFF7EFBF10B5F3
:100950001446D0F8C8021A46234601F0D2F8BDE882
:100960001040FFF7E3BF08B5D0F8C80201F001F965
:10097000BDE80840FFF7DABF08B5D0F8C80201F0BB
:1009800073F9BDE80840FFF7D1BF08B5D0F8C80239
:1009900001F0A2F9BDE80840FFF7C8BF08B5D0F8DC
:1009A000C80201F09AF8BDE80840FFF7BFBF08B5DC
:1009B000D0F8C80201F038F9BDE80840FFF7B6BF2B
:1009C00008B5D0F8C80201F003F9BDE80840FFF708
:1009D000ADBFD0F8D43200EB830010B5D0F8C042E0
:1009E00084B1D0F8C4325BB194F80002FF2807D07C
:1009F0009B6894F8012221469847FF2384F800322F
:100A0000002000E0032010BD0A2303800048704747
:100A1000E000002070B5822106460F4800F094FBEC
:100A2000012105460C4800F08FFB812104460A484D
:100A300000F08AFB0DB11022AA711CB14022227174
:100A40000022627118B140220271002242714323D8
:100A50000148338070BD00BF9C000020FFF7DABF63
:100A600070B5822106460F4800F06EFB0121054655
:100A70000C4800F069FB812104460A4800F064FB41
:100A80000DB11022AA711CB10022227102226271E2
:100A900018B10022027102224271432301483380BF
:100AA00070BD00BF9C00002038B5D0F8D432B03300
:100AB000044650F823508DB1FFF72DFFC5F80C0206
:100AC000D4F8D40204EB800405F50371D4F8C432E1
:100AD000D5F80402DB689847002038BD0320FCE706
:100AE000F8B5D0F8D46200EB86060A46D6F8C052B4
:100AF00045B301F00F0C142707FB0C07BC6994B138
:100B0000D0F8C8324FF0240E0EFB0C339B6CB4FBB4
:100B1000F3FC03FB1C4434B9BC6123462246FFF7B7
:100B200046FF20460DE0D6F8C4321C690027C5F800
:100B30001472002CF5D0D5F8080205F50471A04711
:100B40003846F8BD0320FCE7D0F8D4322DE9F34154
:100B500000EB83034FF00008D3F8C0728DF80580D6
:100B600005460E46ADF80680002F6ED00A7812F0CA
:100B700060042ED0202C64D1CC8891F801C00CB335
:100B8000120613D5D3F8C432224639469B68604614
:100B90009847F288072A28BF07223946284600F0DE
:100BA00046FD4446204602B0BDE8F081402C28BFF7
:100BB000402487F800C287F801422246394600F0F7
:100BC0004BFDEEE7D3F8C43222469B686046984757
:100BD000E8E74F780B2F34D801A353F827F000BF74
:100BE000110C0008A50B0008430C0008430C00087A
:100BF000430C0008430C0008430C0008430C000899
:100C0000430C0008430C0008270C00083B0C0008AC
:100C100090F89C32032B14D102220DF1060100F052
:100C200006FD3C46BEE790F89C32032B09D1012219
:100C30000DF1050100F0FBFCB4E790F89C32032BAA
:100C4000B0D03146284600F0CBFC0324AAE700BF11
:100C500038B5044600258121FFF785FE012125874F
:100C60002046FFF780FEA4F8785182212046FFF746
:100C70007AFED4F8D432E56404EB8303D3F8C022BF
:100C80008AB1D3F8C4325B689847D4F8D432B03311
:100C900054F82300FFF748FED4F8D432B03344F8B8
:100CA0002350C4F8BC52002038BD70B504464FF440
:100CB0000770FFF735FE054630B9D4F8D432B033AB
:100CC00044F82300022547E04FF40772002104F0A6
:100CD00001FED4F8D432B03344F82350237CC4F856
:100CE000BC52002B3AD14FF40073022281212046DE
:100CF0000126FFF72CFE26874FF4007331460222AF
:100D00002046FFF724FE10230322A4F87861A4F8FC
:100D10004E30822108232046FFF719FED4F8D43242
:100D200004EB83030026D3F8C4320121A4F84C104D
:100D30001B68C5F804629847D5F80422C5F8146208
:100D4000C5F81862002ABDD0257C012185B94FF471
:100D500000732046FFF734FE284670BD4023022270
:100D6000812120460126FFF7F2FD26874023C5E7B3
:100D700040232046FFF724FE3546EDE739B1D0F891
:100D8000D43200EB8300C0F8C41200207047032067
:100D90007047D0F8D432B03350F823302BB1C3F8B9
:100DA0000812C3F810220020704703207047D0F8C3
:100DB000D432B03350F823301BB1C3F804120020F2
:100DC000704703207047D0F8D432B03310B550F8D4
:100DD00023207AB1D2F8144201236CB9C2F814323C
:100DE000D2F81032C362D2F808228121FFF7DFFD6A
:100DF000204610BD0320FCE71846FAE7D0F8D422BD
:100E0000B03210B550F8222082B1047CD2F804220E
:100E100034B94FF400730121FFF7D2FD204610BD15
:100E200040230121FFF7CCFD0024F7E70324F5E779
:100E300078B10023C0F8B832C0F8C432C0F8D0325C
:100E400009B1C0F8B412012380F89C320270FFF798
:100E500021BD0320704713B500230446ADF80630CA
:100E600081B1CB6AC0F8B81223B10DF106009847E2
:100E7000C4F8D002D4F8D8320133C4F8D8320020F4
:100E800002B010BD0320FBE7FFF758BDD0F8B83221
:100E90000BB11B6818471846704708B5D0F8B83230
:100EA0005B689847002818BF032008BD38B5044682
:100EB00000F2AA25284600F088FB012394F8AA1224
:100EC000C4F89432B4F8B032C4F8983201F01F0379
:100ED000012B08D0022B0CD08BB929462046BDE847
:100EE000384000F04FB929462046BDE8384000F0B0
:100EF0009FBA29462046BDE8384000F0C8BA2046CF
:100F000001F08001BDE83840FFF736BD70B50446FA
:100F1000164609BBD0F89432032B0CD1D0E95732D6
:100F200093420AD99B1A9A42C0F85C3128BF1A46EC
:100F3000314600F09EFB002070BD90F89C32032BE0
:100F400006D1D0F8B8321B6913B1C0F8D412984753
:100F5000204600F096FBEEE790F89C32032BEAD196
:100F6000D0F8B8329B69002BE5D00022BDE8704074
:100F7000C0F8D422184773B504461646002941D15B
:100F8000D0F89422022A0FD1D0E90752954214D901
:100F9000AA1A0191C261314600F056FB019B1A4624
:100FA00019462046FFF70CFD94F8A03213B1002338
:100FB00084F8A032002002B070BD0ED18269954243
:100FC0000BD8D0F89852AA4207D20A46019100F0F5
:100FD0003BFB019BC4F89832E1E794F89C32032B69
:100FE00008D1D4F8B832DB6823B10022C4F8D42287
:100FF0002046984780212046FFF7BEFC204600F09F
:101000004BFBD1E790F89C32032BD3D1D0F8B83208
:101010005B69002BCED00022C0F8D42202B0BDE81C
:1010200070401847F8B5012380F89C32D0F8B832E8
:1010300000210446C0F894124160C0F8A41280F860
:10104000A012B3B9002600224025114601274023F3
:101050002046FFF77CFCA4F86471C4F860512B466D
:10106000002280212046FFF772FCA78425623046CB
:10107000F8BD5B68002BE5D098470028E2D0032636
:10108000E1E701740020704790F89C32DBB280F8F1
:101090009D32042380F89C320020704790F89C32E7
:1010A000042B02BF90F89D32DBB280F89C32002006
:1010B000704708B590F89C22032A05D1D0F8B832C1
:1010C00013B1DB6903B19847002008BDD0F8D422E2
:1010D000AE3208B550F8222042B190F89C32032B72
:1010E00002D1136A23B19847002000E0032008BD15
:1010F0001846FCE7D0F8D422AE3208B550F82220CA
:1011000042B190F89C32032B02D1536A23B1984725
:10111000002000E0032008BD1846FCE700207047CF
:10112000012208B580F89C22D0F8B8220AB9002024
:1011300008BD5268017990470028F8D00320F7E7EE
:10114000002070470020704710B5428803789A420B
:101150000AD90478204423444478052C9BB2F6D164
:1011600084788C42F3D110BD0020FCE710B58021BB
:101170000446FFF701FC20460021BDE81040FFF7C0
:10118000FBBB00002DE9F3410D7805F06005202D33
:1011900004460E4614D0402D12D0002D40F00A8196
:1011A0004F78092F00F20681DFE817F00B013401B8
:1011B000040123010401860016000401F300A200CB
:1011C000D4F8D432AE33314654F823309B682046ED
:1011D00002B0BDE8F04118470023ADF806304B8857
:1011E0001A0A013A062A37D8DFE802F0041C293629
:1011F00036515B00D0F8B4321B68207C0DF106013B
:101200009847F288002A00F00181BDF806301BB330
:101210009A4228BF1A46ADF806200146204600F043
:1012200006FA1CE0027CD0F8B83232B99B6A0DF1A4
:101230000600984702234370E3E7DB6AF7E7DBB277
:10124000052B09D8DFE803F0030F13171B1FD0F895
:10125000B4325B68002BD0D12046FFF787FF2846C9
:1012600002B0BDE8F081D0F8B4329B68F2E7D0F864
:10127000B432DB68EEE7D0F8B4321B69EAE7D0F8A5
:10128000B4325B69E6E7D0F8B4329B69E2E7037CED
:10129000002BE1D1D0F8B8320DF106005B6B984716
:1012A000AFE7037C002BD7D1D0F8B8320DF10600A0
:1012B0001B6B98470723BEE78B88002BCCD1CB88CC
:1012C000002BC9D14E887F2EC6D890F89C32032BB4
:1012D000C2D0F1B280F89E12FFF760FB204600F00A
:1012E000D0F91EB1022384F89C32B8E70123FAE753
:1012F0008E784E4F012E3E7003D9FFF737FF03253E
:10130000ADE790F89C32022B5FFA83F809D0B8F170
:10131000030F18D0FFF72AFF39782046FFF7BDFDED
:10132000EDE7002E72D001214160FFF7AFFD0546C9
:10133000204625B1FFF71AFF84F89C828FE700F062
:10134000A0F90323CFE75EB9022380F89C32466000
:101350003146FFF7A2FD204600F093F935467EE7BF
:101360004168012952D0C9B2FFF797FD3978616011
:101370002046FFF78BFD0646002847D02046FFF7A2
:10138000F5FE21792046FFF788FD022384F89C3280
:10139000E4E7CA88012A7FF45FAF90F89C12022923
:1013A000CBB205D833B10146002341F8083F35E7F9
:1013B000032B04D02046FFF7D9FE00254FE7011D7F
:1013C0002CE790F89C32013B022BF3D8CB88022B00
:1013D0007FF442AF0123C360D0F8A4320BB10323E2
:1013E000C360022204F10C01204600F020F93D46C2
:1013F00035E74B88012B02D1C4F8A43206E0022B5A
:101400007FF42AAF8B881B0A80F8A032204600F0B8
:1014100038F924E790F89C32013B022BCAD84B885C
:10142000012B7FF41CAF0023E6E700BFA0160020CD
:1014300070B50B7803F06002402A04460E4601D0D6
:101440005B061FD494F89C32013B022B1AD83179E9
:101450000129204617D8FFF773FE88B9D4F8B832AF
:101460009B686BB1C4F8D4023146204698470546C4
:10147000F3881BB915B9204600F003F9284670BD62
:101480000325F5E72046FFF771FE0025F6E770B566
:101490000B788A880E7903F06003202B04460D46F2
:1014A00053D0402B51D063BB4B78012B3BD0032B47
:1014B00020D033BB90F89C32022BD9B261D00329E3
:1014C0001FD106F00F0312F0800F4FF0140202FB41
:1014D000030365D09B8CA3B106F07F05013505EBB6
:1014E000850500EB850516F07F0365D12B60022290
:1014F000294651E090F89C32022BDAB237D0032A09
:1015000003D02046FFF732FE0BE04B8833B971065B
:1015100004D0EB8813B93146FFF72EFA204600F0CD
:10152000B0F8002070BD90F89C32022BDAB21ED0C9
:10153000032AE6D14B88002BF3D1730602D0314643
:10154000FFF723FA204600F09CF831462046FFF7CB
:10155000F9FD0028E5D1D4F8B832C4F8D4029B686C
:10156000002BDED029462046BDE8704018477206A1
:10157000C7D03146FFF700FA80212046FFF7FCF97B
:10158000CFE77106BDD113064CBF00F1140100F581
:10159000AA7100230B600222204600F048F8C0E741
:1015A000B3F86431002BACD006F07F05142303FBA5
:1015B000050505F5AA7596E731462046FFF798F927
:1015C00008B1012392E7286091E70B7803704B780C
:1015D00043704B8843808B888380CB88C38070475F
:1015E00010B580210446FFF7C7F920460021BDE869
:1015F0001040FFF7C1B930B588B100240138234647
:101600000134055D002DFAD1DBB201335B0013809C
:101610000B7003234B70022310F8012F02B930BD69
:10162000CA545A1CD2B202338D54DBB2F4E710B55F
:1016300002241346C0E90622C0F894420A4600215B
:10164000FFF7B5F9002010BD08B513460A46002182
:10165000FFF7ADF9002008BD10B503241346C0E91B
:101660005622C0F894420A460021FFF7A9F900204B
:1016700010BD08B513460A460021FFF7A1F9002066
:1016800008BD08B504220023C0F8942219461A4662
:10169000FFF78DF9002008BD08B505220023C0F82A
:1016A000942219461A46FFF78BF9002008BD000066
:1016B00008B50B4B1A6842F400721A601A6842F4BB
:1016C00080621A601A6842F480721A60032000F087
:1016D0002FF80F2003F0E8FC03F08CFC002008BD7D
:1016E000003C0240034A044B11681B780B44136012
:1016F000704700BFA4160020EA000020014B1868C4
:10170000704700BFA416002038B50446FFF7F6FF67
:10171000631C1CBF054B1B78054618BFE418FFF778
:10172000EDFF431BA342FAD338BD00BFEA000020FF
:101730000749CA6822F4E0620302120403F4E0637A
:10174000120C134343F0BF6343F40033CB60704784
:1017500000ED00E0164B30B5DC68C4F30224C4F1A0
:101760000705231D042D28BF0425062B4FF0FF334A
:101770008CBF033C002403FA05F521EA0501A340D0
:1017800022EA0302A140002841EA0203ACBF00F1B3
:101790006040084A4FEA0313B8BF00F00F00DBB205
:1017A000AABF00F56140135480F8003330BD00BF7C
:1017B00000ED00E014ED00E0002808DB4209012301
:1017C00000F01F0003FA00F0014B43F822007047BD
:1017D00000E100E090F83530022B03D08023436510
:1017E000012070470268052380F83530136823F024
:1017F00001031360002070472DE9F74FDFF8849153
:101800005E4A00230D6801249C4004EA050CAC43A9
:1018100040F0A5804D6805F003044FEA4308032615
:10182000671E06FA08F6012F6FEA060634D88768A5
:1018300007EA060ECF6807FA08F747EA0E0787603F
:10184000476827EA0C0EC5F300179F4047EA0E07CA
:101850004760C76807EA060E8F6807FA08F747EA85
:101860000E07022CC76019D14FEAD30A00EB8A0A8F
:1018700003F0070BDAF820704FEA8B0B4FF00F0ED6
:101880000EFA0BFE27EA0E0E0F6907FA0BF747EA6E
:101890000E07CAF8207001E0032CDAD1076804FAB9
:1018A00008F43E40264315F4403F066057D04FF001
:1018B000000ACDF804A0D9F84460314C46F48046C3
:1018C000C9F84460D9F8446006F480460196019E48
:1018D00023F0030606F1804606F59C3603F0030E5E
:1018E000D6F808804FEA8E0E0F2707FA0EF7A042AF
:1018F00028EA07073AD004F58064A04238D004F5FE
:101900008064A04236D004F58064A04234D004F54F
:101910008064A0420CBF0424072404FA0EF43C4364
:10192000B46094686FEA0C06EF0254BF34404CEA8E
:1019300004049460D468AF0254BF34404CEA0404F9
:10194000D4605468AF0354BF34404CEA040454607C
:101950001468ED0354BF34404CEA040414600133AE
:10196000102B7FF44FAF03B0BDE8F08F5446D4E79F
:101970000124D2E70224D0E70324CEE7003C014053
:1019800000000240003802400AB18161704709043A
:10199000FBE7F0B504468BB060B390F8BD34056842
:1019A00003F0FF021BB980F8BC24FEF7D7FE032327
:1019B00084F8BD34EB6B254613F4807355F8100B97
:1019C00008BF236101F0D2FF0FCD6E460FC60FCDC9
:1019D0000FC695E8030086E803002546271D97E813
:1019E0000E0055F8100B01F00BFF064620B1022344
:1019F00084F8BD3401254EE00146206801F0BCFFAB
:101A00003046D4F804C024264FF0010E0146C2B27D
:101A1000944500F101001CD8002324261946D8B2B1
:101A2000844503F1010322D80FCD6E460FC60FCDBA
:101A30000FC695E8030086E8030097E80E002068CB
:101A400002F01CF801230546F0B1022284F8BD24FF
:101A5000D0E706FB0243C3E9121183F83DE083F8A7
:101A60003C20A3F8442083F840105965CFE706FBDB
:101A70000042C2E9A21182F87D1282F87C0282F84B
:101A80008012C2F89412CAE784F83800206884F8FB
:101A9000BD3402F09BFB28460BB0F0BD10B50446E8
:101AA000006894F8BC34012B15D0012384F8BC34B1
:101AB000A36A012B06D1A369012B1EBF836B43F4DC
:101AC0008033836301F04CFF206802F071FB00203B
:101AD00084F8BC0410BD0220FCE710B590F8BC24CB
:101AE000012A04460BD0012280F8BC2480F838106B
:101AF000006802F04DFB002084F8BC0410BD0220F9
:101B0000FCE770B501F00F0606EBC60411F0800F7C
:101B100005464FEA84044FF024001FD000FB065016
:101B200004F13C010124294480F83D40CA604A7810
:101B30000E700B7102B10E81022B04BF00234B719A
:101B400095F8BC34012B12D00123286885F8BC34E9
:101B500002F057F8002085F8BC0470BD00FB065069
:101B600004F51F710024294480F87D42DEE702203D
:101B7000F3E710B5044601F00F0000EBC00311F0CD
:101B8000800F4FEA83034FF0240216D002FB00427D
:101B900003F13C010123214482F83D30087094F8A0
:101BA000BC34012B12D00123206884F8BC3402F02D
:101BB00067F8002084F8BC0410BD02FB004203F566
:101BC0001F710023214482F87D32E7E70220F3E70A
:101BD00038B501F00F05242404FB050104FB0504BE
:101BE00001F51F71C4F894320023C4F88C22C4F8A4
:101BF0009C3284F87D3284F87C5203690068012BA2
:101C000008BFC4F89022DAB21DB902F08FF80020A4
:101C100038BD02F05DF9FAE701F00F01242303FB60
:101C20000100D0F89C02704738B501F00F0524245C
:101C300004FB050104FB05043C3163650023E365F7
:101C40000123E26484F83D3084F83C500369006865
:101C5000012B08BF2265DAB21DB902F067F8002037
:101C600038BD02F035F9FAE738B5436801F00F05E1
:101C70009D4204462CD811F0800F4FF024001ED056
:101C800000FB054200FB054101233C3182F83D3059
:101C900001238B700D7094F8BC249A421AD02068EE
:101CA00084F8BC3402F020FA2DB9217C206804F2BB
:101CB000C44202F0DDFA002084F8BC0438BD00FB09
:101CC00001431A4603F51F71002382F87D32DFE7D6
:101CD0000120F3E70220F1E738B5436801F00F0275
:101CE0009A4204462AD802EBC20311F0800F4FEA51
:101CF00083034FF0240018D000FB024003F13C01A5
:101D00000123214480F83D3000258D700A7094F83D
:101D1000BC34012B14D00123206884F8BC3402F0B9
:101D20000EFA84F8BC54284638BD00FB024003F587
:101D30001F710023214480F87D32E5E70120F3E79D
:101D40000220F1E701F00F0303EBC3030A064FEA99
:101D500083034CBF03F13C0103F51F71014400688C
:101D600002F060B82DE9F04F066889B004463046AD
:101D700002F069FA0390002840F05681206802F0D2
:101D800033FA002800F05081D6F808382068C3F3F1
:101D90000D23C4F8FC3402F027FA810748BF2268FB
:101DA000206842BF536903F00203536102F01CFA3A
:101DB000C20606F500652CD52268936923F010034E
:101DC0009361D6F82080C8F34343022B08F00F0735
:101DD00040F02D8147F6F07318EA030F14D0242346
:101DE00003FB0747C8F30A19D7F88C124A46304656
:101DF00002F05AF9D7F88C324B44C7F88C32D7F836
:101E00009C324B44C7F89C322268936943F010031C
:101E10009361206802F0E8F9030300F11A81206859
:101E200002F0E2F947030CD5206802F0E9F92746F1
:101E3000049006F5106A4FF00009049B002B40F057
:101E4000D081206802F0D0F9002813DA6B6823F003
:101E500001036B6094F8F434012B40F06B82002195
:101E600084F8F414204600F0E7FA2268536903F07E
:101E700000435361206802F0B7F901050AD5AB6849
:101E8000DA0702D52046FEF7D9FC2268536903F42D
:101E900000635361206802F0A7F9C30433D56B686F
:101EA000206823F001036B60102101F095FD06F519
:101EB00010634FF67F3162680398824200F24282DB
:101EC000EB6943F00113EB61236B002B00F05282AE
:101ED000D5F8843043F00B03C5F884306B6C43F0C5
:101EE0000B036B64D6F80038217C206823F4FE6372
:101EF000C6F8003804F2C44202F0BAF92268536905
:101F000003F480535361206802F06EF9870416D5FC
:101F1000206802F09CF9206801F068FEE060276804
:101F200000F00CFD227B0146384601F0A9FC20465A
:101F3000FEF771FC2268536903F400535361206873
:101F400002F052F9000707D52046FEF760FC226830
:101F5000536903F008035361206802F045F9010654
:101F600000F11382206802F03FF9C2020CD5A046AE
:101F700006F5126901276368BB4200F21F822268DE
:101F8000536903F480135361206802F02DF9830232
:101F90002DD5D4F804E0234606F5326001218E45A4
:101FA00020D993F8A4C20268BCF1010F40F01C8252
:101FB000002A80F21982D4F8FC7402F4803207F00F
:101FC0000107BA4240F0108283F8A3C2B26942F01E
:101FD0008002B2617269170600F106826B6843F4F1
:101FE00000736B602268536903F400135361206827
:101FF00002F0FAF8410007D52046FEF743FC2268BC
:10200000536903F080435361206802F0EDF8420702
:102010000AD523685D686B0702D52046FEF736FCBB
:10202000226853682B43536009B0BDE8F08F062B3C
:102030007FF4EAAE082204F2C441304602F034F8DC
:10204000242303FB0747C8F30A18D7F89C324344FC
:10205000D8E6206802F0CCF806F530680490A24675
:102060000027049B002B3FF4DAAE049BD80776D5FB
:102070005FFA87FB2068594602F0CAF810F0010F9A
:1020800081461CD0206821690123C8F8083000F57A
:10209000306303EB47130129D0F840C09A6840F041
:1020A0008B80110707D5A5498C4508D9100406D5A2
:1020B0004FF4004202E091065AD520229A6019F0AE
:1020C000080F21D00823C8F8083023689B481A6CF1
:1020D00003F5306303EB47138242996804D909047E
:1020E00044BF4FF40041996020460592FEF778FB0B
:1020F000924B059A9A4207D92169012904D1206897
:1021000004F2C44202F0B4F819F0100F1CBF1023FF
:10211000C8F8083019F0020F14D073691B0642BFCB
:102120006B6843F480636B609AF87F32012B06D1B1
:1021300000238AF87F3259462046FEF79BFB022394
:10214000C8F8083019F0200F1CBF2023C8F8083049
:1021500019F4005F1CBF4FF40053C8F80830049B0B
:102160005B080137049308F120080AF1240A78E794
:1021700012F0280FA3D171498C4501D9120497D4CC
:102180001A69DAF89832C2F312029B1ACAF89C3222
:102190006FB9D4F894222AB904F2C442012102F0A2
:1021A00067F804E0D4F88C221344C4F88C32594602
:1021B0002046FEF71BFB82E761498C4507D11104DD
:1021C0003FF576AF9006F2D520229A60EFE7002F18
:1021D000EDD1D4F89432002BE9D104F2C44239464F
:1021E000DDE7049BD80740F19C805FFA89FB2068FB
:1021F000594602F016F810F0010F804620D0012158
:102200006B6B09F00F0201FA02F223EA02036B631F
:102210000B46CAF80810216999420DD1D7E912235B
:102220001344FB64B9F1000F06D1636D23B9206834
:1022300004F2C44202F01CF859462046FEF7DFFAC9
:1022400018F0080F1CBF0823CAF8083018F0100F48
:102250001CBF1023CAF8083018F0400F1CBF4023E1
:10226000CAF8083018F0020F12D04946304601F083
:10227000B3FB97F83F30012B07D14FF0000387F8ED
:102280003F3059462046FEF7F9FA0223CAF80830D3
:1022900018F0800F45D0FA6D7B6D9A4241D89B1A99
:1022A000BA6C21680591934228BF134603339B08FB
:1022B000069301F5106303EB49130793079B0698F8
:1022C0009969FA6D7B6D89B2814228D39A420CD309
:1022D000059B09F00F01D3F83428012000FA01F121
:1022E00022EA0102C3F834281BE0A3EB0208BB6C0E
:1022F0000598984528BF984608F103039B08069364
:10230000237C0093F96C1FFA88F35A4601F0CCFD48
:10231000FB6C4344FB64FB6D4344FB65CEE79A4290
:10232000D6D2049B5B0809F10109049324370AF112
:10233000200A82E52046FEF799FA96E50A30544FC6
:102340000A31544F99601A6822F400121A60C3F8D7
:102350000812D3F8002222F40012C3F80022D3F8A6
:10236000002242F00062C3F80022039A0132039275
:102370002033A0E56B6943F4005343F02B036B61FA
:102380002B6943F00B032B61ACE5B36923F08003A9
:10239000B361012704F27F284FF024096368BB4230
:1023A0007FF6E0AD09FB07F318F80330012B03D1EA
:1023B000F9B22046FFF7C6FC0137EFE798F8643022
:1023C000D9F80020012B09D1002A07DA67F07F0134
:1023D00088F86330C9B22046FFF7B4FC013708F132
:1023E000240809F12009C6E5013124332030D6E55F
:1023F000006870B51204446A19B922438262002051
:1024000070BD836A4D1E04EB134400235E1CDBB2D7
:102410009D4205D83F3100EB810022434260EEE748
:10242000403300EB83035B6804EB13443346EDE772
:102430000368002059627047704700002DE9F3419E
:10244000044640B30368DD0710D4236898075ED4C0
:1024500023681A0700F1A08023685B0700F1C080A1
:10246000A069002840F0288100202BE08F4B9A685B
:1024700002F00C02042A07D09A6802F00C02082A23
:102480000BD15A68510208D5884B1B689A03DCD5DA
:102490006368002BD9D1012014E06268B2F5803F57
:1024A00013D11A6842F480321A60FFF727F97F4E81
:1024B000054633689B03C8D4FFF720F9401B642806
:1024C000F7D9032002B0BDE8F081784DB2F5A02F16
:1024D0002B6807D143F480232B602B6843F48033AF
:1024E0002B60E2E723F480332B602B6823F48023F6
:1024F0002B60002AD9D1FFF701F906462B689F030C
:10250000A3D5FFF7FBF8801B6428F7D9D9E7674B01
:102510009A6812F00C0F07D09A6802F00C02082A91
:1025200011D15B685E020ED4604A13689D0702D524
:10253000E368012BAFD11368216923F0F80343EA64
:10254000C103136084E7E268594BB2B101221A60FB
:10255000FFF7D4F8554D06462B68980707D52B682A
:10256000226923F0F80343EAC2032B6070E7FFF708
:10257000C5F8801B0228EFD9A3E71A60FFF7BEF861
:102580004A4E0546336899077FF562AFFFF7B6F804
:10259000401B0228F6D994E76269454B82B10122BB
:1025A000C3F8802EFFF7AAF8404E0546736F9F07C9
:1025B0003FF552AFFFF7A2F8401B0228F6D980E79B
:1025C000C3F8802EFFF79AF8384E0546736F9807C8
:1025D0007FF542AFFFF792F8401B0228F6D970E76B
:1025E000324B1A6C12F0805228D101921A6C42F0D0
:1025F00080521A641B6C03F080530193019B0127E6
:102600002C4D2B68D9051BD5A368284D012B27D14C
:102610002B6F43F001032B67FFF770F8234E05463D
:1026200041F28838336F9B0739D5002F3FF418AF3C
:102630001E4A136C23F08053136411E70027DFE771
:102640002B6843F480732B60FFF758F806462B681D
:10265000DA05D9D4FFF752F8801B0228F7D930E702
:10266000052B04D12B6F43F004032B67D0E72A6FAF
:1026700022F001022A672A6F22F004022A67002B47
:10268000CAD1FFF73BF841F2883806462B6F98070E
:10269000CBD5FFF733F8801B4045F7D911E7FFF79B
:1026A0002DF8401B4045BDD90BE700BF0038024064
:1026B0000000474200700040364DAB6803F00C0349
:1026C000082B3DD0344B002202281A662BD1FFF78D
:1026D00015F806462B6899011FD4D4E90732134335
:1026E000626A43EA8213E26A43EA0263A26A520818
:1026F000013A43EA02436B60274B264D01221A66DA
:10270000FEF7FCFF04462B689A013FF5ADAEFEF7DD
:10271000F5FF001B0228F6D9D3E6FEF7EFFF801B7A
:102720000228D7D9CDE6FEF7E9FF04462B689B01C6
:102730007FF59AAEFEF7E2FF001B0228F6D9C0E64D
:1027400001283FF4BFAE6B68E26903F48001914257
:102750007FF4A1AE216A03F03F028A427FF49BAE70
:10276000616A47F6C0721A40B2EB811F7FF493AEE4
:10277000A26A520803F44031013AB1EB024F7FF4F0
:102780008AAEE26A03F07063B3EB026F3FF46CAEA3
:1027900081E600BF0038024000004742014B0122A1
:1027A000DA64704700004742134908B58B6803F0AC
:1027B0000C03042B1CD0082B1CD14A684B684968B9
:1027C00013F4800314BF0D480D48C1F3881118BFDE
:1027D000002302F03F02A1FB0001FDF701FD064BC3
:1027E0005B68C3F3014301335B00B0FBF3F008BD4A
:1027F0000248FCE70248FAE70038024040787D01D1
:102800000024F4002DE9F0410D46044610B90120E2
:10281000BDE8F081444B1A6802F007028A4228D3CF
:10282000226897072DD4D00741D43F4B1A6802F095
:102830000702AA4266D8226851076CD4130707D54D
:102840003A4A2169936823F4604343EAC1039360E1
:10285000FFF7AAFF354B364A9B68C3F30313D35CDB
:10286000D840344B1860344B186802F01DFC00202F
:10287000CEE7CAB21A701B6803F007038B42C6D1B9
:10288000CEE72A4B12F0040F1EBF996841F4E051C5
:102890009960160742BF996841F4604199602349E5
:1028A000A0688B6823F0F00303438B60BBE762688A
:1028B0001E4B012A1CD11B6813F4003FA7D01B4EEE
:1028C000B36823F003031343B360FEF717FF41F22D
:1028D00088380746B368626803F00C03B3EB820FD5
:1028E000A3D0FEF70BFFC01B4045F3D903208FE7B1
:1028F000911E01291B6802D813F0007FDEE713F058
:10290000020FDBE7EAB21A701B6803F00703AB4261
:102910007FF47DAF8FE70549E0688B6823F4E053CF
:1029200003438B608AE700BF003C0240003802404E
:10293000557E0008E8010020EC000020014B1868DB
:10294000704700BFE8010020044B054A9B68C3F3B1
:102950004233D35C034A1068D840704700380240C5
:10296000657E0008E80100200F2303600B4B9A6886
:1029700002F0030242609A6802F0F00282609A68F4
:1029800002F4E052C2609B68DB0803F4E053036189
:10299000034B1B6803F007030B60704700380240CD
:1029A000003C02407047000010B5044CE3681B0671
:1029B00003D5FFF7F7FF8023A37310BD0038024053
:1029C0002DE9F3411D46174688460646FEF796FE5A
:1029D0003D442C1AFEF792FE224B1B68C3F3CB3307
:1029E0000546634332680193936838EA030301D0D4
:1029F00000202DE07B1CF7D0FEF780FE401BA0429C
:102A000029D333685A6822F0E0025A607268B2F53E
:102A1000827F0AD1B268B2F5004F02D0B2F5806F62
:102A200003D11A6822F040021A60B26AB2F5005F60
:102A300007D11A6822F400521A601A6842F4005250
:102A40001A60012386F85130002386F850300320A5
:102A500002B0BDE8F081019B002B019B08BF002460
:102A6000013BBFE7E801002038B513464268B2F5E4
:102A7000827F04461FD18268B2F5004F02D0B2F5C2
:102A8000806F07D125682868B2F5806F20F040007C
:102A9000286007D00A4680212046FFF791FF20B921
:102AA000002038BD0A460121F6E7636D43F020039C
:102AB00063650320F5E70A460121EEE737B51346C3
:102AC000124A1568124AB5FBF2F54FF47A72554373
:102AD00042680195B2F5827F04460BD10A468021F7
:102AE000FFF76EFF78B1636D43F020036365032049
:102AF00003B030BD019B33B1019B013B01932368BF
:102B00009B681B06F6D40020F2E700BFE801002016
:102B100000366E0110B50446002855D0436A002BDC
:102B20004ED14268B2F5827F00D0C3610023A36218
:102B300094F8513003F0FF0223B984F85020204666
:102B400002F074FA2168A068A269022384F8513067
:102B50000B6823F040030B60636800F4044003F447
:102B600082730343E06800F400600343206900F0CF
:102B700002000343606900F00100034302F40070A7
:102B80000343E06900F038000343206A00F080004E
:102B90000343A06A00F4005003430B60636A120C05
:102BA00003F0100302F004021A434A60CB6923F4D5
:102BB0000063CB6100200123606584F8513010BDB3
:102BC0000023C0E90433B1E70120F8E72DE9F34120
:102BD0001E4690F85030012B04460D46174600F073
:102BE000A180012380F85030FEF788FD94F8513021
:102BF000012B8046D8B240F09380002D5ED0002F8C
:102C00005CD0A2682563032384F85130B2F5004FED
:102C10004FF000036365C4E91033E786A363A3871D
:102C2000E387A786236807D11A6822F040021A605A
:102C30001A6842F480421A601A68E16852065EBF60
:102C40001A6842F040021A60B1F5006F626841D123
:102C50000AB1012F07D135F8022BDA602563E38E24
:102C6000013B9BB2E386E38E9BB2A3B94246314659
:102C70002046FFF723FF00284FD1A36833B9019303
:102C80002368DA6801929B680193019B606D0038AC
:102C900018BF012012E022689368980705D5236BBE
:102CA00033F8021BD1602363D9E7FEF727FDA0EBC1
:102CB0000800B0420BD3711CD5D00320012384F847
:102CC0005130002384F8503002B0BDE8F081002E6E
:102CD000C9D1F2E70AB1012F08D12A781A73236B00
:102CE00001332363E38E013B9BB2E386E38E9BB209
:102CF000002BBBD023689A68920702D5226B12780A
:102D0000ECE7FEF7FBFCA0EB0800B04202D3731C1B
:102D1000ECD0D2E7002EE9D1CFE720236365ACE702
:102D20000220CBE70220CFE72DE9F7431E4690F8BB
:102D300050300A9F012B04460D46914600F0E68074
:102D4000012380F85030FEF7D9FC94F851306268C6
:102D5000012B8046D9B20AD0B2F5827F40F0D480F0
:102D6000A368002B40F0D080042940F0CD80002DD6
:102D700040D0B9F1000F3DD0002E3BD094F8513037
:102D8000C4F83890042B1CBF052384F8513000236D
:102D90006365C4E910332368E687E6861968A68769
:102DA000490658BF1968256358BF41F04001A686FF
:102DB00058BF1960E168B1F5006F52D10AB1012E18
:102DC00007D135F8022BDA60E38E2563013B9BB215
:102DD000E3860125E38E9BB273B9E38F9BB25BB9A7
:102DE000424639462046FFF769FE002800F0818000
:102DF0002023636501202BE021688B689E070DD599
:102E0000E38E9BB253B14DB1236B33F8022BCA60F2
:102E10002363E38E013B9BB2E38600258A6812F0B0
:102E200001020CD0E38F9BB24BB1A36BC96823F8AE
:102E3000021BA363E38F013B9BB2E3871546FEF7BA
:102E40005DFCA0EB0800B842C4D3781CC2D00320BC
:102E5000012384F85130002384F8503003B0BDE8DA
:102E6000F0830AB1012E08D12A781A73236B01333B
:102E70002363E38E013B9BB2E38601252DE02268AC
:102E8000936899070ED5E38E9BB25BB155B1236B66
:102E90001B781373236B01332363E38E013B9BB2D7
:102EA000E38600252268916811F001010DD0E38FBF
:102EB0009BB253B1A36BD2681A70A36B0133A363A7
:102EC000E38F013B9BB2E3870D46FEF717FCA0EBB7
:102ED0000800B8420AD37B1CB9D1E38E9BB2002B09
:102EE000CDD1E38F9BB2002BC9D179E7002FF4D16C
:102EF000ADE7A368002BABD123680190DA6801929B
:102F00009B680193019BA3E70220A1E70220A5E7AC
:102F10002DE9F7431D464368B3F5827F0446894691
:102F200017460CD1836853B9042380F851301346F7
:102F300000950A46FFF7F8FE03B0BDE8F08394F869
:102F40005030012B00F08680012384F85030FEF7CA
:102F5000D5FB94F85130012B8046D8B278D1B9F125
:102F6000000F5CD0002F5AD0A268C4F83890002619
:102F70000423B2F5004F84F85130C4E91066666549
:102F80002368E787A7872663A686E68607D11A689F
:102F900022F040021A601A6822F480421A601A680D
:102FA00056065EBF1A6842F040021A60E368F3B149
:102FB000E38F9BB2FBB123689A68D20739D5DA68F0
:102FC000A36B23F8022BA363E38F013B9BB2E38740
:102FD000EEE723689A68D00718D5A26B1B7B1370A5
:102FE000A36B0133A363E38F013B9BB2E387E38FC2
:102FF0009BB2002BEDD1424629462046FFF734FD17
:1030000018BB606D003818BF012008E0FEF776FBA2
:10301000A0EB0800A84209D3691CE8D003200123D3
:1030200084F85130002384F8503085E7002DDED13C
:10303000F4E7FEF763FBA0EB0800A84202D36B1C89
:10304000B6D0EBE7002DB3D1E8E720236365D8E7DE
:103050000220E4E702206FE770470000F0B5036844
:103060005D689A68560685B004464FEA9211C2F32D
:10307000801708D4D60706D56E0604D5036C05B0B4
:10308000BDE8F0401847960704D5280602D5636CC2
:103090002046F4E741EA5211C2F3002001F0010199
:1030A000560951EA000257D0AA0655D57FB194F8C7
:1030B0005120032A4FF0000148D0626D42F0040213
:1030C00062650091DA6800929A680092009AF107AE
:1030D0000CD5626D42F001026265002202929A688C
:1030E00002921A6822F040021A60029A40B1626DA0
:1030F00042F008026265002203929A680392039AE2
:10310000626D4AB35A6822F0E0025A60012284F8E4
:103110005120AA0722D05A68E06C22F003025A60BC
:1031200040B1104B0365FEF755FB18B1636D43F0DA
:1031300040036365A06C78B10A4B0365FEF74AFB58
:1031400050B1636D43F04003636505E00191DA68B7
:1031500001929B680193019B05B0F0BD2046FFF7EB
:103160007BFFF9E76931000808B5806B0023C3874E
:10317000C386FFF771FF08BD7047000090F83D302F
:10318000012B28D1022380F83D300368DA6842F031
:103190000102DA60114A934212D0B3F1804F0FD08E
:1031A000A2F57C4293420BD002F58062934207D095
:1031B00002F58062934203D002F59A32934204D121
:1031C0009A6802F00702062A03D01A6842F0010248
:1031D0001A60002070470120704700BF00000140C6
:1031E000704770477047704703681A69910710B5B8
:1031F00004460ED5DA6892070BD56FF002021A6109
:10320000012202779B699B0777D0FFF7EAFF002333
:10321000237723681A69500710D5DA6851070DD54E
:103220006FF004021A61022222779B6913F4407F37
:10323000204668D0FFF7D5FF0023237723681A695B
:1032400012070FD5DA6810070CD56FF008021A6163
:1032500004222277DB69990720465AD0FFF7C1FF85
:103260000023237723681A69D20610D5DA68D006BE
:103270000DD56FF010021A6108222277DB6913F472
:10328000407F20464BD0FFF7ACFF00232377236815
:103290001A69D10708D5DA68D20705D56FF001029F
:1032A0001A61204601F0BCFB23681A69100608D594
:1032B000DA68110605D56FF080021A61204600F029
:1032C000B0F823681A69520608D5DA68500605D5A1
:1032D0006FF040021A612046FFF785FF23681A69E4
:1032E000910622D5DA6892061FD56FF0200220469B
:1032F0001A61BDE8104000F093B8FFF771FF204657
:10330000FFF770FF83E7FFF76BFF2046FFF76AFFC9
:1033100092E7FFF765FF2046FFF764FFA0E7FFF79E
:103320005FFF2046FFF75EFFAFE710BD244A03684A
:1033300090420ED0B0F1804F0BD0A2F57C4290426B
:1033400007D002F58062904203D002F5806290427D
:1033500015D14A6823F070031343194A904219D0DB
:10336000B0F1804F16D0A2F57C42904212D002F507
:10337000806290420ED002F5806290420AD0114ADB
:10338000904207D002F58062904203D002F580623D
:10339000904203D1CA6823F4407313434A6923F06F
:1033A0008003134303608B68C3620B688362044B22
:1033B000984204BF0B69036301234361704700BF58
:1033C000000001400040014010B5044630B390F8C1
:1033D0003D3003F0FF021BB980F83C20FFF7CCFE24
:1033E0000223206884F83D30211DFFF79FFF012351
:1033F00084F84630002084F83E3084F83F3084F86A
:10340000403084F8413084F8423084F8433084F806
:10341000443084F8453084F83D3010BD0120FCE78D
:10342000704770472DE9F04702460D6895FAA5F4FC
:103430004FF0010EB4FA84F403264FF00F0C35FA66
:1034400004F001D1BDE8F0870EFA04F32B406DD0F3
:103450004868471E012F1ED8D2F8088093FAA3F7B8
:10346000B7FA87F793FAA3F97F0006FA07F728EA75
:103470000708B9FA89F98F684FEA490907FA09F785
:1034800048EA07079760576827EA0308CF685F4351
:1034900048EA07075760D2F80C8093FAA3F7B7FA07
:1034A00087F793FAA3F97F0006FA07F728EA0708D7
:1034B000B9FA89F90F694FEA490907FA09F748EAA1
:1034C00007070228D7601DD193FAA3F7B7FA87F749
:1034D000072FD1F814902BDCD2F820A093FAA3F890
:1034E000B8FA88F893FAA3F7B7FA87F74FEA88088B
:1034F0000CFA08F8BF002AEA080809FA07F748EAB0
:1035000007071762D2F8008093FAA3F7B7FA87F794
:1035100093FAA3F3B3FA83F37F0006FA07F75B008D
:1035200028EA070700FA03F33B431360013486E7F8
:10353000D2F824A01F0A97FAA7F8B8FA88F897FAE1
:10354000A7F7B7FA87F74FEA88080CFA08F8BF0020
:103550002AEA080809FA07F748EA07075762D1E795
:10356000034B044A9B68C3F30313D35CD8407047F2
:1035700000380240557E0008034B044A9B68C3F3A1
:103580008223D35CD840704700380240657E000833
:10359000034B044A9B68C3F34233D35CD840704763
:1035A00000380240657E00080E4A0F49536813F444
:1035B000800F0E4B18BF0B46082810D15068516879
:1035C000526800F03F00B3FBF0F0C1F3881358439A
:1035D000C2F3014301335B00B0FBF3F070470020FE
:1035E000704700BF0038024040787D010024F4009D
:1035F000064B986800F00C00042803D0082803D17B
:10360000FFF7D2BF024870470248704700380240B7
:1036100040787D010024F40010B50446FFF7E8FF70
:103620002060FFF79DFF6060FFF7A6FFA060606865
:10363000FFF7AEFFE06010BD234A036890420ED052
:10364000B0F1804F0BD0A2F57C42904207D002F53A
:103650008062904203D002F58062904215D14A68A0
:1036600023F070031343184A904219D0B0F1804FF1
:1036700016D0A2F57C42904212D002F580629042B0
:103680000ED002F5806290420AD0104A904207D0D4
:1036900002F58062904203D002F58062904203D12D
:1036A000CA6823F44073134303608B68C3620B88BA
:1036B0008362054B984204BF0B690363436943F07F
:1036C00001034361002070470000014000400140B9
:1036D0007FB5C3689B0404460D4602D5012004B0A3
:1036E00070BD4B68C968C2680B4329690B43A9695F
:1036F00022F416420B4322F00C021343C360036909
:10370000AA6823F440531343036143696A6923F4AD
:103710004073134343616846FFF77EFF224B9C4290
:1037200028D103990029D9D02B68002BD6D0AA69BB
:103730001920B2F5004FA1FB000124D1DA184FF097
:10374000000545EB0503FCF74BFD6421B0FBF1F6EA
:1037500001FB1603DB003233B3FBF1F303F0070286
:103760005B0002EB061203F4F87313449BB2A360F0
:103770000020B4E70D4B9C4201D10299D2E70C4BDB
:103780009C42ABD1CDE79A009B0FFCF729FD642248
:10379000B0FBF2F102FB11031B013233B3FBF2F376
:1037A00003EB0113E2E700BF0010014000440040BA
:1037B0000014014082B00023104A0193019B0133A1
:1037C0000193019B934216D80369002BF6DA00237C
:1037D00001930369094A43F001030361019B01332B
:1037E0000193019B934206D8036913F00103F5D1BD
:1037F000184602B070470320FBE700BF400D0300EE
:1038000084B038B505AD85E80E000A9B012B04464F
:1038100025D1836B23F480338363C36823F484034B
:1038200023F04003C360C36823F44013C360119BBB
:10383000012B02BFC36843F48013C360FFF7BAFFD4
:10384000089B012B07D1A36843F00603A360A3687C
:1038500043F02003A360BDE8384004B07047C3685C
:1038600043F04003C360FFF7A5FF0E9B23B9A36B92
:1038700043F48033A363E3E7A36B23F48033F9E7D6
:10388000022A4AD1274B284A0B44934239D9274B65
:10389000274A0B44934236D9264AA1F57403A3F56F
:1038A0001053934231D9244AA1F18373A3F5E7431E
:1038B00093422CD3214B224A0B44934229D9214BCA
:1038C000214A0B44934226D3204B214A0B44934276
:1038D00023D3204AA1F1B773A3F5585393421ED3C3
:1038E0001D4B1E4A0B44934234BF07230623C26874
:1038F00022F47052C260C26842EA8323C36000208F
:1039000070470F23F3E70E23F1E70D23EFE70C23B6
:10391000EDE70B23EBE70A23E9E70923E7E70823B1
:10392000E5E700BF405327FFFF340C00401E1BFF9C
:103930003F420F007F4F120020D6130060B6E5FE15
:103940005FE3160000D3CEFE40771B00C05BB3FEE2
:10395000C091210020753800E05459FEE09C4100E0
:10396000836843F00103836000207047836823F07D
:10397000010383600020704738B5C368012923F034
:10398000C0430546C36010D1C36843F00053C36011
:1039900000240120FDF7B8FE6B69D90704F101048A
:1039A00015D4322CF5D1012038BD0029FBD1C368D4
:1039B00043F08043C3600C460120FDF7A5FE6B6910
:1039C000DA0704F1010402D5322CF5D1EBE7A4F1BA
:1039D000320358425841E7E782B00023104A01936E
:1039E000019B01330193019B934216D80369002B7D
:1039F000F6DA8901002341F02001094A01930161AF
:103A0000019B01330193019B934206D8036913F094
:103A10002003F5D1184602B070470320FBE700BF32
:103A2000400D030082B000230F4A0193019B013334
:103A30000193019B934214D80369002BF6DA00230B
:103A40000193094A10230361019B01330193019BF8
:103A5000934206D8036913F01003F5D1184602B05B
:103A600070470320FBE700BF400D0300D0F800388B
:103A70001943C0F8001800207047000084B02DE9F9
:103A8000F843044609A880E80E00139D00230E4663
:103A9000194603F1400204EB820201330F2B5160FF
:103AA000F7D104F50067002D6CD17B6843F0020369
:103AB0007B60A36B43F40013A363A36B23F4002385
:103AC000A363A36B23F48023A3630023C4F8003E05
:103AD000D4F80038C4F800380E9B012B5CD10B9948
:103AE000002957D12046FFF7C1FF10212046FFF7DC
:103AF00073FF01462046FFF795FF0843C0B200233D
:103B000000383B6118BF01207B6104F51062FB6146
:103B100019464FF0904C4FF0006E4FF67F38B3428D
:103B20003CD1002204F5306311464FF0904C4FF029
:103B3000006E4FF67F38B24243D13B6923F4807365
:103B40003B610023A3616FF0804363610C9B1BB951
:103B5000A36943F01003A361A269234B1343A3613C
:103B60000F9B1BB1A36943F00803A361012D01BFA3
:103B7000A36943F0804343F00403A361BDE8F84325
:103B800004B07047A36B23F40013A363A36B43F447
:103B9000002399E71946A5E70321A3E7D2F800908F
:103BA000B9F1000F0BDA3BB9C2F800E01161013343
:103BB000C2F808802032B2E7C2F800C0F6E7116010
:103BC000F4E7D3F80090B9F1000F0BDA3AB9C3F873
:103BD00000E019610132C3F808802033ABE7C3F875
:103BE00000C0F6E71960F4E700383C80D0F80838E8
:103BF00013F0060004D013F0020F14BF02200F20B0
:103C0000704730B50D78012405F00F039C404B78C8
:103C100000F50062012B00EB4510D36918D11C435D
:103C2000D461D0F800391A0410D4CA68D0F8004919
:103C3000C2F30A030A79234343EA824343EA8553E2
:103C400043F0805343F40043C0F80039002030BDF6
:103C500043EA0444D461D0F8003B1B04F6D4CB689B
:103C6000D0F8002BC3F30A0313430A7943EA8243D3
:103C700043F0805343F40043C0F8003BE6E7000004
:103C800010B50A784978012900EB421300F500606D
:103C900002F00F0222D1D3F8001900290BDAD3F871
:103CA000001941F00061C3F80019D3F8001941F080
:103CB0008041C3F80019C46B012101FA02F224EA21
:103CC0000204C463C16921EA0202C261D3F8001987
:103CD000144A0A40C3F80029002010BDD3F8001B85
:103CE00000290BDAD3F8001B41F00061C3F8001B78
:103CF000D3F8001B41F08041C3F8001BC46B4FF4A4
:103D0000803101FA02F224EA0204C463C16921EAA3
:103D10000202C261D3F8001B034A0A40C3F8002B19
:103D2000DAE700BF007833EC0078F3EF4B78DFF888
:103D3000F0C0F0B50E788D69384F012B00EB4614BA
:103D400046D104F51063BDB91D692F401F611D697F
:103D500045F400251D611D6905EA0C05012A1D6158
:103D600023D14A6902B15A61D4F8003943F00443BF
:103D7000C4F800390020F0BDD3F810E00EEA0C0CB6
:103D8000C3F810C0D3F810C00CEA07071F61CF6852
:103D9000AF421D6938BF8F6145F400251D618D69F3
:103DA0001F69C5F312053D43D8E7D4F8003943F045
:103DB0000443C4F800398B69002BDBD0D0F83428D9
:103DC00006F00F060123B3401343C0F83438D1E79F
:103DD000D4F8100B00EA0C00C4F8100BD4F8100B48
:103DE000384004F530631861C86805B188611D6901
:103DF000C86145F400251D611D69C0F31200284308
:103E0000012A186102D10A6902B15A61D4F8003B53
:103E100043F00443C4F8003BACE700BFFFFF07E0FA
:103E20000000F8FF82B000234A7801930B78012A42
:103E30004FEA43131ED100F51060C118C258002A82
:103E400002DB002002B07047C25842F00062C2504C
:103E5000C25842F08042C25042F21072019B0133BC
:103E60000193019B934201D90120EBE70B68002BE2
:103E7000F4DBE6E700F53060C118C258002AE0DA4A
:103E8000C25842F00062C250C25842F08042C25052
:103E900042F21072019B01330193019B9342E3D8DC
:103EA0000B68002BF6DBCCE710B59DF8084044B951
:103EB000033301329B0800EB023001EB83038B429A
:103EC00001D1002010BD51F8042B0260F7E700007B
:103ED0002DE9F3414D780F788B690E79DFF8BCC17D
:103EE000DFF8BCE1012D00EB471440F08E8004F5B3
:103EF0001065D5F810806BBB08EA0C0CC5F810C033
:103F0000D5F810C04CF4002CC5F810C0D5F810C07E
:103F10000CEA0E0EC5F810E0012A4ED14B6903B130
:103F20006B61012E0CD1D0F8083813F4807FD4F8DF
:103F300000390CBF43F0005343F08053C4F80039FC
:103F4000D4F8003943F00443C4F80039002002B02B
:103F5000BDE8F08108EA0E0EC5F810E0D5F810E0D3
:103F60000EEA0C0CD1F80CE0C5F810C00EEB030CF7
:103F70000CF1FF3CBCFBFEFEDFF828C1D5F8108039
:103F80000CEACE4C4CEA080CC5F810C0D5F810E08D
:103F9000C3F3120C4CEA0E0C012EC5F810C0BBD1B5
:103FA000D5F810C02CF0C04CC5F810C0D5F810C022
:103FB0004CF0005CC5F810C0AEE7D4F80059012EF3
:103FC00045F00445C4F800590BD0002BBED0D0F802
:103FD000343807F00F02012797401F43C0F83478A8
:103FE000B4E7D0F8085815F4807FD4F800590CBF16
:103FF00045F0005545F08055C4F800590092096914
:104000009BB23A46FFF750FFA0E7D4F8105B05EAF1
:104010000E05C4F8105BD4F8105B05EA0C0504F536
:1040200030673D61CD681BBB3B69C5F312051D437D
:104030003D613B6943F400233B61012A02D10B69D6
:1040400003B17B61012E0CD1D0F8083813F4807FC6
:10405000D4F8003B0CBF43F0005343F08053C4F846
:10406000003BD4F8003B43F00443C4F8003B6DE749
:104070002B44DFF830C0D7F810E0013BB3FBF5F379
:104080009BB25D430CEAC34343EA0E03CD613B613F
:104090003B69C5F312051D433D61CEE7FFFF07E015
:1040A0000000F8FF0000F81F034670B590080024D8
:1040B00002F0030203F58055844210D301EB800027
:1040C00062B103F580531C680023D90024FA01F182
:1040D000C154013399B28A42F7D1104470BD2E68A1
:1040E00041F824600134E7E74A780B78012A00EBB5
:1040F000431012D1D0F80029002A06DB2BB1D0F8EA
:10410000003923F08043C0F80039D0F8003943F477
:104110000013C0F8003900207047D0F8002B002AA7
:1041200006DB2BB1D0F8003B23F08043C0F8003B06
:10413000D0F8003B43F40013C0F8003BEBE70B78EA
:104140004A7800EB43100B79012AA3F10203DBB29A
:104150000FD1D0F80029012B22F40012C0F8002959
:1041600005D8D0F8003943F08053C0F8003900205A
:104170007047D0F8002B22F40012012BC0F8002B5E
:104180009EBFD0F8003B43F08053C0F8003BEEE701
:10419000D0F8003823F4FE63C0F80038D0F80038B7
:1041A000090101F4FE611943C0F8001800207047AE
:1041B000D0F8003E23F00303C0F8003ED0F80438E6
:1041C00023F00203C0F8043800207047D0F8003E06
:1041D00023F00303C0F8003ED0F8043843F0020394
:1041E000C0F8043800207047426980691040704769
:1041F000D0F8183800F50060C0691840000C70470E
:10420000D0F8183800F50060C069184080B27047D7
:1042100000EB411100F50060D1F8082B4069104017
:10422000704710B5D0F81048D0F8343800EB411082
:1042300001F00F01CB4000F51060DB018068DBB2BC
:104240002343184010BD406900F001007047D0F8CA
:10425000003923F4FF6323F00703C0F80039D0F8D6
:10426000043843F48073C0F804380020704700001D
:1042700030B5056C104CA54200F5306303D9D0F879
:10428000004B002C16DB00241C611C6944F4002444
:104290001C611C6944F018041C611C69012944F06C
:1042A000C0441C6101BF5A61D0F8003B43F0802339
:1042B000C0F8003B002030BD0A30544F054B1A6B4C
:1042C00002431A631B6B82B018400190019B02B03D
:1042D000704700BF00380240024800221021FDF75D
:1042E00053BB00BF00000240024801221021FDF72D
:1042F0004BBB00BF000002400A464FF0FF330146AF
:104300000148FEF705BE00BFAC36002007B501210D
:104310000DF10700FFF7F0FF9DF8070003B05DF80F
:1043200004FB00000A464FF0FF3301460148FEF748
:104330004DBC00BFAC36002007B501218DF8070049
:104340000DF10700FFF7EEFF03B05DF804FB00F08E
:104350000700C0F10702031D042A28BF0422062B10
:104360004FF0FF3303FA02F38CBF0338002021EA39
:10437000030101FA00F070470FB400B5C3B044ABBD
:104380004FF4807153F8042B019302A801F0ECFA6A
:1043900002A8FCF7A7F881B202A8FCF751F943B0D4
:1043A0005DF804EB04B0704710B50749044601F00E
:1043B000A8FA0649204601F095FA20460449BDE8CE
:1043C000104001F08FBA00BFCC7A0008070100202E
:1043D000E769000810B5ADF5C26D04460D4940F21D
:1043E0008F22684601F068FA4FF460720A49A4A867
:1043F00001F062FA6946204601F083FA0749204637
:1044000001F070FAA4A9204601F06CFA0DF5C26D16
:1044100010BD00BF62620008F1640008777B0008ED
:1044200010B50549044601F06CFA20460349BDE881
:10443000104001F057BA00BF716800088768000893
:104440002DE9F341012707EB80044FEAC408054634
:1044500008F540700E46019200F0CCFE1728044685
:104460001AD008D8019A002800F09480132800F090
:104470008880012457E01C28FBD150482946FFF7CB
:104480007BFF284600F0DEFB012804464BD14C4858
:104490002946FFF771FF46E008F50078404600F036
:1044A000A9FEC30707D547482946FFF765FF3946E8
:1044B000404600F0CDFE284600F093FF0028D8D0FB
:1044C00042F20402824228BF024692B23146284696
:1044D00000F086FC041E26DD3B490422304601F034
:1044E000DBF918B1284600F0ADFBC2E7341D3749AF
:1044F0000422204601F0D0F9C8B93046FFF790FFFA
:104500003046FBF7EFFF002780464745EAD0A8EB8F
:10451000070292B2F119284600F0D8FB041E2EDAE9
:10452000284600F089FA204602B0BDE8F08128490B
:104530000522204601F0B0F940B92649304601F085
:10454000E0F92549304601F0CDF9D9E723490522A4
:10455000204601F0A1F918B93046FFF73BFFCFE73D
:104560001F490322204601F097F918B93046FFF79A
:104570001BFFC5E71B49304601F0C3F9C0E72744DC
:10458000C3E719482946FFF7F7FE284600F024FB49
:104590000446C8E7154801922946FFF7EDFE234679
:1045A000019A3946284600F085FA85420446BAD178
:1045B00001460F48FFF7E0FE5BE700BFD96800083F
:1045C000E8680008A1680008B0680008B56800083D
:1045D000BA680008CC7A0008C0680008CD680008F6
:1045E000D56800081E7B0008F46800080B69000805
:1045F0001969000810B594B0102200210AA801F032
:1046000069F91422002103A801F064F9224B00216A
:1046100001911A6C42F080521A641B6C1F4A03F01D
:1046200080530193019B0291136823F4404343F4A8
:1046300000431360136803F440430293029B01227A
:104640004FF48033CDE9082302244FF48003CDE9F1
:104650000E4319214FF4A8730420CDE9101307234A
:10466000CDE9120308A8FDF7E9FE08B172B6FEE72E
:104670000F23CDE903344FF48053CDE90630059084
:10468000214603A8FEF7BEF808B172B6FEE7FEF7B2
:1046900085F814B010BD00BF003802400070004023
:1046A0002DE9804893B0FDF703F8FFF7A3FF182228
:1046B00000210BA801F00EF90420FFF7FFFD802078
:1046C000FFF7FCFD0120FFF7F9FD0220FFF7F6FDE3
:1046D000B648B74FB74EDFF83883DFF838A3DFF8B6
:1046E00038B34FF000538361B34BBB61B34BB3613D
:1046F000002401254FF400530BA9CDE90B35CDE97A
:104700000D440F94FEF78EFE0BA93846CDE90B54ED
:104710000F95FEF787FE48F218030BA93846CDE93E
:104720000B35CDE90D440F94FEF77CFE4FF2FF737D
:104730000BA93046CDE90B35CDE90D440F94FEF7BA
:1047400071FE142221460BA801F0C4F8D8F84430B9
:1047500043F40033C8F84430D8F8443003F400334D
:104760000393039BDAF80C000F21C0F30220FFF73C
:10477000EEFD0001C0B24FF000738BF81903A6F5EF
:104780004046CBF800304AF20F430BA9ADF82C306D
:10479000304640F2F313CDE90D340C94FEF74CFF94
:1047A000336843F080033360FBF7FAFE84488549A1
:1047B00084624FF48273C0E900134FF008094FF48C
:1047C0000073C0E906390A23C0E90244C0E9044481
:1047D000C0E90844C362FEF79DF9044608B172B609
:1047E000FEE701461C220BA801F074F818222146AE
:1047F00005A801F06FF8D8F8443043F01003C8F86A
:104800004430D8F84430DFF8148203F010030493E6
:104810002846049BFFF752FD4FF4C0620223CDE906
:1048200005230323CDE9073405A9072338460A9356
:104830000994FEF7F7FDDAF80C002146C0F30220D8
:10484000FFF785FD0001C0B220238BF82503CBF8CC
:1048500004304FF4E133CDE90B340BA90C2340466F
:10486000CDE90F34CDE90D441194FEF731FFD8F8AE
:10487000103023F49043C8F81030D8F8143023F0E7
:104880002A03C8F81430D8F80C3043F40053C8F8A1
:104890000C30F36843F00103F360336843F0010325
:1048A0003360224649463846FDF76EF82846FCF745
:1048B0002BFF2A4649463846FDF766F84FF47A70D2
:1048C000FCF722FF4049414800F01AFE40494148A8
:1048D00000F028FE4049414800F03AFE404A106886
:1048E00051680BAB03C30BA9084600F084FE3D489A
:1048F00000F0BEFE3B49204600F054FF4FF47A70B2
:10490000FCF702FF384C3948FFF736FD0023012140
:104910005022184600F0CEF8C1B22170002938D0DC
:104920003348FFF729FD002000F056F9C1B20129F4
:10493000217032D02F48FFF71FFD4FF4427000F076
:1049400059FC14282DD02C48FFF716FD4FF4427067
:1049500000F050FC172802D02848FFF70DFD05AAEB
:104960000421002000F0AAFA9DF817309DF81520C8
:104970009DF81410009322489DF81630FFF7FCFCB8
:10498000204950220020FFF75BFD002000F054F882
:10499000B9E71D48FFF7F0FCC5E71C48FFF7ECFC42
:1049A000CBE70520FCF7B0FEC7E700BF00080240D8
:1049B0000000024000040240000018800000FFF7E1
:1049C000AC36002000300140E9420008D94200081E
:1049D000394300080D43000825430008F942000848
:1049E000DE690008F0000020043700202569000877
:1049F0003A69000877690008A2690008B5690008EB
:104A0000CB690008A81600205769000894690008BF
:104A10000038024000ED00E000E100E0001001403D
:104A20000268034B9A4201D1FCF75CBE704700BF9D
:104A30000000014072B6FEE70828F8B504462DD8FC
:104A4000470107F1080607F584771021384600F082
:104A5000FFFB384600F0CEFB05460028F9D11F21A8
:104A600006F5007000F0F4FB0E490123A3400A880C
:104A7000DB431BB21A400A800B4A11880B4013809B
:104A80000A4B23F814500A4B1D5506F54076304664
:104A900000F0B0FB0028FAD10120F8BD4FF0FF3044
:104AA000FBE700BF06370020083700201237002040
:104AB0000A37002008282DE9F341044688461746A6
:104AC0001D467CD8012905D08B1E022B10D96FF012
:104AD00004000AE004220DEB02014FF4706000F0C4
:104AE000E9FB019B23B96FF0020002B0BDE8F08141
:104AF000680757D42DB1B8F1010F50D0B8F1020FAB
:104B000053D020466601FFF797FF083625F00F01C6
:104B100041EA0801304600F09BFB6FB9294A17882B
:104B20007B1C9BB24FF6F0718B4209BF4FF44043A0
:104B3000138013804FF6EF77390A06F5806000F096
:104B400087FBF9B206F5A06006F5807700F080FBE0
:104B50000121384600F07CFB384600F04BFB002872
:104B6000FAD119490123A3400A88DB431BB205F09F
:104B700001051A40A5401543144A0D8011880B40C9
:104B80001380134B23F81400124B185506F540768A
:104B9000304600F02FFB0028FAD060B2A5E715F0F0
:104BA000210FAED16FF005009FE7A9066BB201D5CA
:104BB000002BF7DAEA06A4D5002BA2DBF2E74FF0D0
:104BC000FF3092E7E601002006370020083700207A
:104BD000123700200A370020082870B5054627D86C
:104BE00044010834204600F005FB00F00F000128C6
:104BF00021D104F54076304600F0FCFA13281DD18F
:104C000004F580740221204600F022FB204600F0CB
:104C1000F1FA0028FAD1304600F0ECFA142801D15C
:104C2000012004E02846FFF707FF6FF0030070BD86
:104C30004FF0FF30FBE76FF00400F8E76FF0020081
:104C4000F5E70000082870B5054635D8440108345A
:104C5000204600F0CFFA00F00F0001282FD104F514
:104C600080760821304600F0F3FA304600F0C2FAB0
:104C70000028FAD11349012303FA05F20B8823EA2D
:104C800002030B80104B1B882B41DA0713D404F569
:104C9000407604F50074304600F0ACFA08B9012003
:104CA00009E0204600F0A6FA0307F4D52846FFF7EE
:104CB000C3FE6FF00C0070BD4FF0FF30FBE76FF0EC
:104CC0000400F8E7083700200637002008282DE9FF
:104CD000F84F06468846924675D84501083528465D
:104CE00000F088FA00F00F0001286FD1BAF1000F30
:104CF0006FD005F54079484600F07CFA172801D0BE
:104D00001C2832D1344F3B883341D90711D505F5E2
:104D10000074204600F06EFAC20629D51021204604
:104D200000F096FA012303FA06F23B8823EA020315
:104D30003B8005F5F85000F05DFA83029CB25445C3
:104D400028BF54464FF0010A0AFA06FA304600F02E
:104D500025FB8346484600F04DFA17281F4B12D01A
:104D60001C2810D03046FFF767FE6FF0060002E007
:104D7000030702D40020BDE8F88F3046FFF75CFE41
:104D80006FF00C00F7E71A8812EA0A0F18D05C459A
:104D9000F0D841463046224605F5807500F044FBC8
:104DA0002021284600F054FA284600F023FA002873
:104DB000FAD13B884AEA030AA7F800A02046DAE7BE
:104DC0005C45C3D8E5E74FF0FF30D4E76FF004004F
:104DD000D1E76FF00D00CEE708370020063700203E
:104DE00008282DE9F74F8346884617465AD84501CB
:104DF0000835284600F0FEF900F00F06012E54D1C8
:104E0000002F55D005F5F05000F0F4F906FA0BF636
:104E1000009005F5407905F5F85A584600F0E1FA9A
:104E20000446484600F0E6F9172815D01C280BD197
:104E3000DCB9584600F0B2FA0190504600F0DAF9B9
:104E40000199B1EB802F07D15846FFF7F5FD6FF0C0
:104E5000060003B0BDE8F08F174B1988314202D02D
:104E60001CB92046F5E7002CD7D0009B980280B2F1
:104E7000874228BF0746A742384628BF204687B248
:104E8000414658463A4605F5807500F0FCFA402147
:104E9000284600F0DDF9284600F0ACF90028FAD1E8
:104EA0003846D6E74FF0FF30D3E76FF00400D0E785
:104EB0006FF00D00CDE700BF063700200828F8B5D9
:104EC0000446164600F28C800C2900F28C80DFE844
:104ED00001F007121B22333E8A4A5B60636A7B0043
:104EE000012505EB8000C00000F084F920F00F00E0
:104EF00030702846F8BD012505EB8000C00000F5A4
:104F0000B05000F077F9F3E7012505EB8000C00011
:104F100000F5A850F5E7012505EB8004E40004F551
:104F2000905000F067F9074604F5985000F062F9D8
:104F300000EB07203080DCE70422012512FB005043
:104F4000C000314600F5406000F0B4F9D1E701251A
:104F500005EB8004E40004F5805000F04BF90746AF
:104F600004F58850E2E744010834204600F042F995
:104F700000F00F05012D02D06FF00405B9E704F52C
:104F80003C5000F037F9D5E700F008FA30800125F1
:104F9000AFE700F026FAF9E7012505EB8000C00035
:104FA00000F54070ADE7012505EB8000C00000F082
:104FB00021F9C30703D5204600F013FABAE70B4BDB
:104FC00033F81430338094E7012505EB8000C000EE
:104FD00000F010F9A842CFD0054B1B5D337088E775
:104FE0004FF0FF3585E76FF0010582E712370020AB
:104FF0000A37002082B00C4B002100915A6C42F419
:1050000080425A645A6C02F480420092009A0191E4
:105010001A6C42F080521A641B6C03F080530193A7
:10502000019B02B0704700BF0038024010B5044633
:1050300088B01422002103A800F04CFC2268184B11
:105040009A422AD103F58433002401945A6C1548FE
:1050500042F480525A645A6C02F480520192019ACE
:1050600002941A6B42F001021A631B6B03F00103F6
:105070000293E022029B0223CDE9032303210523AF
:10508000CDE9061303A9FCF7B7FB232022462146EE
:10509000FCF760FB2320FCF78FFB08B010BD00BFBE
:1050A000003001400000024070B588B000241D4B64
:1050B00002945A6C1C4D42F001025A645B6C03F07E
:1050C000010301A90293064603A8029BFDF74CFCCD
:1050D000FDF73AFC154B2B6040F2E733EB60144BC5
:1050E000B0FBF3F00138686028462C61AC60AC611D
:1050F000FEF76AF9044680B92846FEF73FF80446F1
:1051000058B91920FCF758FB0F2E09D82246314612
:105110001920FCF71FFB074B1E60204608B070BD2E
:105120000124FAE700380240243700200000014043
:1051300040420F00EC00002008B5FDF735FCFEE70B
:10514000FEE7FEE7FEE7FEE77047704770477047EF
:10515000094B1A69D2070CD508496FF001021A6190
:105160004B691A04DB4302F0005203F4005313436B
:105170008B610348FEF738B8004401400008024044
:10518000243700200148FDF769BF00BFAC3600207E
:10519000704700000148FCF7E5BD00BF740F002018
:1051A0000B4A116810B5034609B90A491160106825
:1051B00009490A4C0344091B8B4206D900F042FB03
:1051C0000C2303604FF0FF3010BD1360FCE700BFFD
:1051D0006C37002088370020000001200004000008
:1051E000034AD2F8883043F47003C2F8883070471D
:1051F00000ED00E07FB5154CE3680546984763690C
:105200009847636AC5F30740C5F30726EDB20BB1B3
:10521000A36A8BB9236A9847236A30469847236A62
:1052200028469847E3699847A369019098472369FE
:105230009847019804B070BD8DF80C008DF80D6092
:105240008DF80E50032103A89847EBE7EC010020EE
:10525000F7B5174CE36805460E46984763699847CB
:10526000A36A45F00407C5F30740FFB2C5F307255D
:1052700083B9236A9847236A28469847236A3846A1
:105280009847236A30469847A36998472369984707
:1052900003B0F0BD04218DF804008DF805508DF8A1
:1052A00006708DF807600DEB01009847ECE700BF32
:1052B000EC0100202DE9F3411A4CE36805460E4647
:1052C0001746984763699847636AC5F30740C5F373
:1052D0000728EDB20BB1A36AB3B9236A9847236AD2
:1052E00040469847236A284698473744B74206D134
:1052F000A36998472369984702B0BDE8F081E36944
:10530000984706F8010BF1E78DF804008DF8058049
:1053100001A88DF8065003219847636A3946304644
:105320009847E5E7EC0100202DE9F3411A4CE368CA
:1053300005460F469046984763699847A36A45F02B
:105340000406C5F30740F6B2C5F30725B3B9236ACF
:105350009847236A28469847236A30469847B844B6
:10536000B84506D1A36998472369984702B0BDE8BC
:10537000F081236A17F8010B9847F1E78DF80400D4
:105380008DF8055001A88DF8066003219847A36A9F
:10539000414638469847E5E7EC0100202DE9F04109
:1053A0004701083707F50058002407F50457404621
:1053B000FFF720FF000285B23846FFF71BFF2844A5
:1053C00086B24EB14046FFF715FF000285B238465F
:1053D000FFF710FF284484B2B442E8D12046BDE86C
:1053E000F0812DE9F0414701083707F518580024EE
:1053F00007F51C574046FFF7FDFE000285B2384610
:10540000FFF7F8FE284486B24EB14046FFF7F2FEA1
:10541000000285B23846FFF7EDFE284484B2B4425C
:10542000E8D12046BDE8F0812DE9F3411446019111
:1054300032B385006F1CFF0007F510584046FFF798
:10544000D9FE07F5145706463846FFF7D3FE00EBA2
:10545000062086B2023530022246019900EBC500D3
:10546000FFF762FFA1198CB24046C1F30721FFF795
:10547000EFFEE1B2384602B0BDE8F041FFF7E8BE0A
:1054800002B0BDE8F0812DE9F3411446019132B339
:1054900085006F1CFF0007F520584046FFF7AAFE65
:1054A00007F5245706463846FFF7A4FE00EB062012
:1054B00086B2033530022246019900EBC500FFF7A2
:1054C000F9FEA1198CB24046C1F30721FFF7C0FED7
:1054D000E1B2384602B0BDE8F041FFF7B9BE02B014
:1054E000BDE8F08170470078704701707047002078
:1054F00070477047704770477047704770470000AB
:10550000054B00B121B9054A5A61054A9A617047B5
:10551000C3E90501704700BFEC010020FB540008FF
:10552000FD540008074B1A88920500D4FEE700B12D
:1055300021B9054ADA61054A1A627047C3E90701D1
:10554000704700BFEC010020EF540008F35400083E
:10555000074B1A88920500D4FEE700B121B9054A2D
:105560005A62054A9A627047C3E90901704700BF51
:10557000EC010020F5540008F75400087FB506221E
:1055800004A94FF41060FFF795FE04220DEB020111
:105590004FF48070FFF78EFE02A904224FF4A06042
:1055A000FFF788FE042203A94FF47060FFF782FE24
:1055B00080210020FFF74CFE0020FFF71BFE04A90E
:1055C00006224FF41060FFF7AFFE04220DEB02013C
:1055D0004FF48070FFF7A8FE02A904224FF4A060E8
:1055E000FFF7A2FE042203A94FF47060FFF79CFEB0
:1055F00007B05DF804FBF8B505460C46FFF7BEFFA3
:10560000BDB16E1E32460735002312F8011F0B4450
:105610005BB2102B29DCAA42F7D141F6087542F2A1
:105620000807284616F8011F2035FFF711FEBD4276
:10563000F7D10CB90020F8BD651E2A4607340023B7
:1056400012F8011F0B445BB2102B0EDC9442F7D111
:1056500041F6086441F60876204615F8011F20340B
:10566000FFF7F6FDB442F7D1E4E74FF0FF30E2E791
:1056700010B50146044606224FF41060FFF754FEB1
:10568000042204F10E014FF48070FFF74DFE042256
:1056900004F10A014FF4A060FFF746FE0422A11DA9
:1056A0004FF47060FFF740FE064BA27C1A70E27C5C
:1056B0005A70227D9A70627DDA70034BA27D1A7057
:1056C00010BD00BF713700207037002010B50146B3
:1056D000044606224FF41060FFF7ECFD042204F1AB
:1056E0000E014FF48070FFF7E5FD042204F10A017A
:1056F0004FF4A060FFF7DEFD0422A11D4FF470609F
:10570000FFF7D8FD064B1A78A2745A78E2749A789B
:10571000DB786375034B22751B78A37510BD00BF42
:10572000713700207037002038B530F03A05044654
:105730000AD12846FFF75EFD44EA0001C9B22846B7
:10574000FFF786FD284638BD4FF0FF30FBE700200D
:10575000FFF750BD10B5044601784FF4D850FFF75D
:1057600077FD61884FF4C850090AFFF771FDA178F1
:105770004FF4D050BDE81040FFF76ABD38B504467D
:105780004FF4D850FFF736FD20704FF4C850FFF7A4
:1057900031FD05464FF4D050FFF72CFD00EB0520FE
:1057A000608038BD10B50C4605281ED8DFE800F033
:1057B00003080C1115190846FFF75AFF002010BD09
:1057C0000846FFF783FFF9E7BDE810400878FFF7C8
:1057D000ABBFFFF7BCFF2070F0E70846FFF7BAFF4A
:1057E000ECE70846FFF7CAFFE8E74FF0FF30E6E7CF
:1057F000DFF834D00D480E490E4A002302E0D45899
:10580000C4500433C4188C42F9D30B4A0B4C002308
:1058100001E013600432A242FBD3FFF7E1FC00F089
:1058200017F8FEF73DFF7047000001200000002040
:105830007C020020147F00087C02002084370020B6
:10584000FEE70000014B1868704700BF18020020F7
:1058500070B50D4D0D4C641BA4100026A64209D155
:105860000B4D0C4C00F0CEFC641BA4100026A6428D
:1058700005D170BD55F8043B98470136EEE755F861
:10588000043B98470136F2E70C7F00080C7F0008C4
:105890000C7F0008107F000810B5013902449042C7
:1058A00001D1002005E0037811F8014FA34201D097
:1058B000181B10BD0130F2E70A44914200F1FF339A
:1058C00000D1704710B511F8014B03F8014F914218
:1058D000F9D110BD02440346934200D1704703F84A
:1058E000011BF9E710B50246147813460132002C6B
:1058F000FAD1013B11F8012B03F8012F002AF9D14D
:1059000010BD034611F8012B03F8012B002AF9D131
:10591000704730B51446002C9BB005461A4605DA90
:105920008B2303604FF0FF301BB030BD4FF4027388
:10593000ADF80C3014BF04F1FF33234602930593F6
:105940004FF6FF7300910491ADF80E3069461E9B2F
:1059500000F00AF9431CBCBF8B232B60002CE3D062
:10596000009B00221A70DFE707B5009313460A4632
:10597000014603480068FFF7CCFF03B05DF804FB65
:10598000180200207047704770B50E4E0C46316803
:10599000054611B900F07CFB30602146284600F036
:1059A00077FB431C0AD0C41C24F00304A04207D098
:1059B000211A284600F06CFB013001D14FF0FF3472
:1059C000204670BD7C3700202DE9F041CD1C25F02C
:1059D000030508350C2D38BF0C25002D074601DBCB
:1059E000A94205D90C233B6000263046BDE8F08172
:1059F0002E4E00F077FB33681C4634BB29463846F0
:105A0000FFF7C2FF431C04464DD134682646002EE2
:105A100040D123683146384604EB030800F038FBD8
:105A200080453AD1216803356D1A25F00305083504
:105A30000C2D38BF0C2529463846FFF7A5FF01304D
:105A40002BD023682B4423600EE02268521B1ED407
:105A50000B2A16D96119A342256018BF59606368E3
:105A600008BF316062514B60384604F10B0600F00C
:105A70003FFB26F00706231DF21AB6D09B1BA3504E
:105A8000B3E76268A3420CBF32605A60ECE723467A
:105A90006468B2E734467668B9E70C233B60384661
:105AA00000F026FBA1E72560DEE700BF7837002085
:105AB0002DE9F0478E689E4282460C4690461F466E
:105AC00038D88A8912F4906F32D025680969A5EB1D
:105AD0000109656905EB450505EBD57501334B44B7
