:020000040800F2
:100000000000012079630008195A0008215A0008ED
:10001000235A0008255A0008275A0008000000004B
:10002000000000000000000000000000295A000845
:100030002B5A0008000000002D5A00082F5A000813
:10004000C9630008C9630008C9630008C9630008E0
:10005000C9630008C9630008C9630008C9630008D0
:10006000C9630008C9630008C9630008C9630008C0
:10007000C9630008C9630008C9630008C9630008B0
:10008000C9630008C9630008C963000800000000D4
:10009000000000000000000000000000C96300082C
:1000A000C9630008315A0008C9630008C963000821
:1000B000C9630008C9630008C9630008C963000870
:1000C000C9630008C9630008C9630008655A0008CD
:1000D000C9630008715A0008C963000800000000E5
:1000E000C9630008C9630008C96300080000000074
:1000F000000000000000000000000000C9630008CC
:1001000000000000C9630008C9630008C963000853
:1001100000000000000000000000000000000000DF
:10012000C9630008C9630008C9630008C9630008FF
:10013000C96300080000000000000000000000008B
:100140000000000000000000000000001D5D00082D
:10015000C9630008C9630008C9630008C9630008CF
:10016000C9630008C9630008000000000000000027
:10017000000000000000000000000000000000007F
:1001800000000000C963000800000000000000003B
:04019000C963000837
:1001A00010B5054C237833B9044B13B10448AFF3B1
:1001B00000800123237010BD840200200000000095
:1001C0006C77000808B5034B1BB103490348AFF334
:1001D000008008BD00000000880200206C77000845
:1001E00053B94AB9002908BF00281CBF4FF0FF319E
:1001F0004FF0FF3000F074B9ADF1080C6DE904CE9A
:1002000000F006F8DDF804E0DDE9022304B07047F1
:100210002DE9F047089D04468E46002B4DD18A42B9
:10022000944669D9B2FA82F252B101FA02F3C2F1EC
:10023000200120FA01F10CFA02FC41EA030E94407D
:100240004FEA1C48210CBEFBF8F61FFA8CF708FB9E
:1002500016E341EA034306FB07F199420AD91CEB76
:10026000030306F1FF3080F01F81994240F21C81A8
:10027000023E63445B1AA4B2B3FBF8F008FB1033F0
:1002800044EA034400FB07F7A7420AD91CEB040425
:1002900000F1FF3380F00A81A74240F207816444F5
:1002A000023840EA0640E41B00261DB1D44000237A
:1002B000C5E900433146BDE8F0878B4209D9002DDE
:1002C00000F0EF800026C5E9000130463146BDE868
:1002D000F087B3FA83F6002E4AD18B4202D38242D2
:1002E00000F2F980841A61EB030301209E46002D81
:1002F000E0D0C5E9004EDDE702B9FFDEB2FA82F2D6
:10030000002A40F09280A1EB0C014FEA1C471FFA33
:100310008CFE0126200CB1FBF7F307FB131140EA1A
:1003200001410EFB03F0884208D91CEB010103F1E7
:10033000FF3802D2884200F2CB804346091AA4B2A9
:10034000B1FBF7F007FB101144EA01440EFB00FE7D
:10035000A64508D91CEB040400F1FF3102D2A645E2
:1003600000F2BB800846A4EB0E0440EA03409CE781
:10037000C6F12007B34022FA07FC4CEA030C20FA2E
:1003800007F401FA06F31C43F9404FEA1C4900FA4E
:1003900006F3B1FBF9F8200C1FFA8CFE09FB1811CB
:1003A00040EA014108FB0EF0884202FA06F20BD93E
:1003B0001CEB010108F1FF3A80F08880884240F28E
:1003C0008580A8F102086144091AA4B2B1FBF9F0D2
:1003D00009FB101144EA014100FB0EFE8E4508D9CD
:1003E0001CEB010100F1FF346CD28E456AD9023852
:1003F000614440EA0840A0FB0294A1EB0E01A14237
:10040000C846A64656D353D05DB1B3EB080261EBA4
:100410000E0101FA07F722FA06F3F1401F43C5E97E
:10042000007100263146BDE8F087C2F12003D840B4
:100430000CFA02FC21FA03F3914001434FEA1C47F6
:100440001FFA8CFEB3FBF7F007FB10360B0C43EAE8
:10045000064300FB0EF69E4204FA02F408D91CEB98
:10046000030300F1FF382FD29E422DD90238634496
:100470009B1B89B2B3FBF7F607FB163341EA034136
:1004800006FB0EF38B4208D91CEB010106F1FF3885
:1004900016D28B4214D9023E6144C91A46EA00467C
:1004A00038E72E46284605E70646E3E61846F8E60E
:1004B0004B45A9D2B9EB020864EB0C0E0138A3E757
:1004C0004646EAE7204694E74046D1E7D0467BE738
:1004D000023B614432E7304609E76444023842E7B0
:1004E000704700BF034613F8012B002AFBD1181AEE
:1004F000013870470000000000000000000000000C
:1005000001F0FF01102A2BDB10F0070F08D010F8C4
:10051000013B013A8B422DD010F0070F42B3F6D1C8
:10052000F0B441EA012141EA014122F007047FF0E1
:1005300000070023F0E80256083C85EA010586EA38
:10054000010685FA47F5A3FA87F586FA47F6A5FA74
:1005500087F68EB9EED1F0BC01F0FF0102F0070280
:1005600032B110F8013B013A83EA010313B1F8D12B
:100570000020704701387047002D06BF354603380C
:10058000073815F0010F07D1013015F4807F02BF45
:10059000013015F4C03F0130F0BC0138704700BF96
:1005A00008B50F490F48002200F042FC08B104F0E2
:1005B000B1FE0D490B4800F04EFC08B104F0AAFE54
:1005C0000A49084800F0DAFB08B104F0A3FE054828
:1005D00000F05AFC18B1BDE8084004F09BBE08BD0D
:1005E00014000020A0020020640000200000002071
:1005F00000207047002070470020704710B5054C60
:100600000146204600F0D3FB204600F0F7FB002017
:1006100010BD00BFA002002010B5064C0649002204
:10062000204600F0B6FB0549204600F0C0FB002044
:1006300010BD00BFA00200207C0900207C05002026
:1006400010B5094CD4F8BC32D3F814320A4643B979
:100650000146204600F09DFB2046BDE8104000F01A
:10066000B2BB012010BD00BFA00200201223014830
:100670000B80704730000020042301480B80704736
:1006800044000020002370B54D1C1E46040FB0F13D
:10069000204F34BF3034373401F8134005F813606D
:1006A0000133DCB2A2424FEA0010EFD870BD000067
:1006B0001A2310B50B800A4BD3F8100AD3F8182A66
:1006C00080180AD0D3F8144A06490822FFF7DAFF47
:1006D000042210312046FFF7D5FF034810BD00BFAC
:1006E0000070FF1F4A0000204800002010B5044C95
:1006F00004480A46214600F07EFF204610BD00BF98
:100700007C0D00209077000810B5044C04480A4680
:10071000214600F070FF204610BD00BF7C0D002078
:10072000A377000810B5044C04480A46214600F09F
:1007300062FF204610BD00BF7C0D0020B977000885
:1007400010B5044C04480A46214600F054FF2046E8
:1007500010BD00BF7C0D0020C477000830B50446F2
:1007600089B01422002103A805F06AFE2368B3F1C2
:10077000A04F2ED1184C194800250195236B43F04A
:1007800001032363236B03F0010301934FF4C05271
:10079000019B0223CDE9032303210A23CDE906139C
:1007A00003A901F059F9636B43F080036363029579
:1007B000636C43F480436364636C03F4804302938B
:1007C00043202A462946029B00F0C4FF432000F044
:1007D000F3FF09B030BD00BF003802400000024006
:1007E00000F2C441D0F8080500F060BB242303FBED
:1007F0000103D0F80805D3F88C2200F087BB24232E
:1008000003FB0103D0F80805DA6C00F0B4BBD0F8A4
:10081000080500F04EBCC368022B10B5044601D099
:1008200004F078FDD4F80805012100F02AFCD4F882
:100830000805BDE8104000F0F5BB000010B5044607
:10084000D0F8080500F020FC2268D2F8003E43F002
:100850000103C2F8003E236A23B1034A136943F03F
:100860000603136110BD00BF00ED00E0D0F80805DD
:1008700000F014BCD0F8080500F03CBCD0F8080526
:1008800000F024BCD0F8080500F048BCD0F80805FA
:1008900000F046BC08B5037802462BBB13484FF066
:1008A000A041C0F80825C2F8C8020422C0E900121D
:1008B0000222C0E90323C0E90623C0E90833C0E9E6
:1008C0000B3301F096F908B104F024FD80210748AC
:1008D00001F0DEFE40220021044801F0B9FE034889
:1008E0008022012101F0B4FE002008BD7C0F002011
:1008F00011F0800FD0F8C8324FF024021BBF01F076
:100900007F0102FB013102FB013191F83E0008BF7B
:1009100091F87E027047D0F8C80201F0ADBA00002D
:1009200000487047881400207047000003289ABFD1
:10093000014B185C03207047D277000808B5D0F847
:10094000C80201F0DBF9BDE80840FFF7EFBF10B5C2
:100950001446D0F8C8021A46234601F002FABDE850
:100960001040FFF7E3BF08B5D0F8C80201F031FA34
:10097000BDE80840FFF7DABF08B5D0F8C80201F0BB
:10098000A3FABDE80840FFF7D1BF08B5D0F8C80208
:1009900001F0D2FABDE80840FFF7C8BF08B5D0F8AB
:1009A000C80201F0CAF9BDE80840FFF7BFBF08B5AB
:1009B000D0F8C80201F068FABDE80840FFF7B6BFFA
:1009C00008B5D0F8C80201F033FABDE80840FFF7D7
:1009D000ADBFD0F8D43200EB830010B5D0F8C042E0
:1009E00084B1D0F8C4325BB194F80002FF2807D07C
:1009F0009B6894F8012221469847FF2384F800322F
:100A0000002000E0032010BD0A2303800048704747
:100A1000E000002070B5822106460F4800F094FBEC
:100A2000012105460C4800F08FFB812104460A484D
:100A300000F08AFB0DB11022AA711CB14022227174
:100A40000022627118B140220271002242714323D8
:100A50000148338070BD00BF9C000020FFF7DABF63
:100A600070B5822106460F4800F06EFB0121054655
:100A70000C4800F069FB812104460A4800F064FB41
:100A80000DB11022AA711CB10022227102226271E2
:100A900018B10022027102224271432301483380BF
:100AA00070BD00BF9C00002038B5D0F8D432B03300
:100AB000044650F823508DB1FFF72DFFC5F80C0206
:100AC000D4F8D40204EB800405F50371D4F8C432E1
:100AD000D5F80402DB689847002038BD0320FCE706
:100AE000F8B5D0F8D46200EB86060A46D6F8C052B4
:100AF00045B301F00F0C142707FB0C07BC6994B138
:100B0000D0F8C8324FF0240E0EFB0C339B6CB4FBB4
:100B1000F3FC03FB1C4434B9BC6123462246FFF7B7
:100B200046FF20460DE0D6F8C4321C690027C5F800
:100B30001472002CF5D0D5F8080205F50471A04711
:100B40003846F8BD0320FCE7D0F8D4322DE9F34154
:100B500000EB83034FF00008D3F8C0728DF80580D6
:100B600005460E46ADF80680002F6ED00A7812F0CA
:100B700060042ED0202C64D1CC8891F801C00CB335
:100B8000120613D5D3F8C432224639469B68604614
:100B90009847F288072A28BF07223946284600F0DE
:100BA00046FD4446204602B0BDE8F081402C28BFF7
:100BB000402487F800C287F801422246394600F0F7
:100BC0004BFDEEE7D3F8C43222469B686046984757
:100BD000E8E74F780B2F34D801A353F827F000BF74
:100BE000110C0008A50B0008430C0008430C00087A
:100BF000430C0008430C0008430C0008430C000899
:100C0000430C0008430C0008270C00083B0C0008AC
:100C100090F89C32032B14D102220DF1060100F052
:100C200006FD3C46BEE790F89C32032B09D1012219
:100C30000DF1050100F0FBFCB4E790F89C32032BAA
:100C4000B0D03146284600F0CBFC0324AAE700BF11
:100C500038B5044600258121FFF785FE012125874F
:100C60002046FFF780FEA4F8785182212046FFF746
:100C70007AFED4F8D432E56404EB8303D3F8C022BF
:100C80008AB1D3F8C4325B689847D4F8D432B03311
:100C900054F82300FFF748FED4F8D432B03344F8B8
:100CA0002350C4F8BC52002038BD70B504464FF440
:100CB0000770FFF735FE054630B9D4F8D432B033AB
:100CC00044F82300022547E04FF40772002105F0A5
:100CD000B7FBD4F8D432B03344F82350237CC4F8A3
:100CE000BC52002B3AD14FF40073022281212046DE
:100CF0000126FFF72CFE26874FF4007331460222AF
:100D00002046FFF724FE10230322A4F87861A4F8FC
:100D10004E30822108232046FFF719FED4F8D43242
:100D200004EB83030026D3F8C4320121A4F84C104D
:100D30001B68C5F804629847D5F80422C5F8146208
:100D4000C5F81862002ABDD0257C012185B94FF471
:100D500000732046FFF734FE284670BD4023022270
:100D6000812120460126FFF7F2FD26874023C5E7B3
:100D700040232046FFF724FE3546EDE739B1D0F891
:100D8000D43200EB8300C0F8C41200207047032067
:100D90007047D0F8D432B03350F823302BB1C3F8B9
:100DA0000812C3F810220020704703207047D0F8C3
:100DB000D432B03350F823301BB1C3F804120020F2
:100DC000704703207047D0F8D432B03310B550F8D4
:100DD00023207AB1D2F8144201236CB9C2F814323C
:100DE000D2F81032C362D2F808228121FFF7DFFD6A
:100DF000204610BD0320FCE71846FAE7D0F8D422BD
:100E0000B03210B550F8222082B1047CD2F804220E
:100E100034B94FF400730121FFF7D2FD204610BD15
:100E200040230121FFF7CCFD0024F7E70324F5E779
:100E300078B10023C0F8B832C0F8C432C0F8D0325C
:100E400009B1C0F8B412012380F89C320270FFF798
:100E500021BD0320704713B500230446ADF80630CA
:100E600081B1CB6AC0F8B81223B10DF106009847E2
:100E7000C4F8D002D4F8D8320133C4F8D8320020F4
:100E800002B010BD0320FBE7FFF758BDD0F8B83221
:100E90000BB11B6818471846704708B5D0F8B83230
:100EA0005B689847002818BF032008BD38B5044682
:100EB00000F2AA25284600F088FB012394F8AA1224
:100EC000C4F89432B4F8B032C4F8983201F01F0379
:100ED000012B08D0022B0CD08BB929462046BDE847
:100EE000384000F04FB929462046BDE8384000F0B0
:100EF0009FBA29462046BDE8384000F0C8BA2046CF
:100F000001F08001BDE83840FFF736BD70B50446FA
:100F1000164609BBD0F89432032B0CD1D0E95732D6
:100F200093420AD99B1A9A42C0F85C3128BF1A46EC
:100F3000314600F09EFB002070BD90F89C32032BE0
:100F400006D1D0F8B8321B6913B1C0F8D412984753
:100F5000204600F096FBEEE790F89C32032BEAD196
:100F6000D0F8B8329B69002BE5D00022BDE8704074
:100F7000C0F8D422184773B504461646002941D15B
:100F8000D0F89422022A0FD1D0E90752954214D901
:100F9000AA1A0191C261314600F056FB019B1A4624
:100FA00019462046FFF70CFD94F8A03213B1002338
:100FB00084F8A032002002B070BD0ED18269954243
:100FC0000BD8D0F89852AA4207D20A46019100F0F5
:100FD0003BFB019BC4F89832E1E794F89C32032B69
:100FE00008D1D4F8B832DB6823B10022C4F8D42287
:100FF0002046984780212046FFF7BEFC204600F09F
:101000004BFBD1E790F89C32032BD3D1D0F8B83208
:101010005B69002BCED00022C0F8D42202B0BDE81C
:1010200070401847F8B5012380F89C32D0F8B832E8
:1010300000210446C0F894124160C0F8A41280F860
:10104000A012B3B9002600224025114601274023F3
:101050002046FFF77CFCA4F86471C4F860512B466D
:10106000002280212046FFF772FCA78425623046CB
:10107000F8BD5B68002BE5D098470028E2D0032636
:10108000E1E701740020704790F89C32DBB280F8F1
:101090009D32042380F89C320020704790F89C32E7
:1010A000042B02BF90F89D32DBB280F89C32002006
:1010B000704708B590F89C22032A05D1D0F8B832C1
:1010C00013B1DB6903B19847002008BDD0F8D422E2
:1010D000AE3208B550F8222042B190F89C32032B72
:1010E00002D1136A23B19847002000E0032008BD15
:1010F0001846FCE7D0F8D422AE3208B550F82220CA
:1011000042B190F89C32032B02D1536A23B1984725
:10111000002000E0032008BD1846FCE700207047CF
:10112000012208B580F89C22D0F8B8220AB9002024
:1011300008BD5268017990470028F8D00320F7E7EE
:10114000002070470020704710B5428803789A420B
:101150000AD90478204423444478052C9BB2F6D164
:1011600084788C42F3D110BD0020FCE710B58021BB
:101170000446FFF701FC20460021BDE81040FFF7C0
:10118000FBBB00002DE9F3410D7805F06005202D33
:1011900004460E4614D0402D12D0002D40F00A8196
:1011A0004F78092F00F20681DFE817F00B013401B8
:1011B000040123010401860016000401F300A200CB
:1011C000D4F8D432AE33314654F823309B682046ED
:1011D00002B0BDE8F04118470023ADF806304B8857
:1011E0001A0A013A062A37D8DFE802F0041C293629
:1011F00036515B00D0F8B4321B68207C0DF106013B
:101200009847F288002A00F00181BDF806301BB330
:101210009A4228BF1A46ADF806200146204600F043
:1012200006FA1CE0027CD0F8B83232B99B6A0DF1A4
:101230000600984702234370E3E7DB6AF7E7DBB277
:10124000052B09D8DFE803F0030F13171B1FD0F895
:10125000B4325B68002BD0D12046FFF787FF2846C9
:1012600002B0BDE8F081D0F8B4329B68F2E7D0F864
:10127000B432DB68EEE7D0F8B4321B69EAE7D0F8A5
:10128000B4325B69E6E7D0F8B4329B69E2E7037CED
:10129000002BE1D1D0F8B8320DF106005B6B984716
:1012A000AFE7037C002BD7D1D0F8B8320DF10600A0
:1012B0001B6B98470723BEE78B88002BCCD1CB88CC
:1012C000002BC9D14E887F2EC6D890F89C32032BB4
:1012D000C2D0F1B280F89E12FFF760FB204600F00A
:1012E000D0F91EB1022384F89C32B8E70123FAE753
:1012F0008E784E4F012E3E7003D9FFF737FF03253E
:10130000ADE790F89C32022B5FFA83F809D0B8F170
:10131000030F18D0FFF72AFF39782046FFF7BDFDED
:10132000EDE7002E72D001214160FFF7AFFD0546C9
:10133000204625B1FFF71AFF84F89C828FE700F062
:10134000A0F90323CFE75EB9022380F89C32466000
:101350003146FFF7A2FD204600F093F935467EE7BF
:101360004168012952D0C9B2FFF797FD3978616011
:101370002046FFF78BFD0646002847D02046FFF7A2
:10138000F5FE21792046FFF788FD022384F89C3280
:10139000E4E7CA88012A7FF45FAF90F89C12022923
:1013A000CBB205D833B10146002341F8083F35E7F9
:1013B000032B04D02046FFF7D9FE00254FE7011D7F
:1013C0002CE790F89C32013B022BF3D8CB88022B00
:1013D0007FF442AF0123C360D0F8A4320BB10323E2
:1013E000C360022204F10C01204600F020F93D46C2
:1013F00035E74B88012B02D1C4F8A43206E0022B5A
:101400007FF42AAF8B881B0A80F8A032204600F0B8
:1014100038F924E790F89C32013B022BCAD84B885C
:10142000012B7FF41CAF0023E6E700BFA8160020C5
:1014300070B50B7803F06002402A04460E4601D0D6
:101440005B061FD494F89C32013B022B1AD83179E9
:101450000129204617D8FFF773FE88B9D4F8B832AF
:101460009B686BB1C4F8D4023146204698470546C4
:10147000F3881BB915B9204600F003F9284670BD62
:101480000325F5E72046FFF771FE0025F6E770B566
:101490000B788A880E7903F06003202B04460D46F2
:1014A00053D0402B51D063BB4B78012B3BD0032B47
:1014B00020D033BB90F89C32022BD9B261D00329E3
:1014C0001FD106F00F0312F0800F4FF0140202FB41
:1014D000030365D09B8CA3B106F07F05013505EBB6
:1014E000850500EB850516F07F0365D12B60022290
:1014F000294651E090F89C32022BDAB237D0032A09
:1015000003D02046FFF732FE0BE04B8833B971065B
:1015100004D0EB8813B93146FFF72EFA204600F0CD
:10152000B0F8002070BD90F89C32022BDAB21ED0C9
:10153000032AE6D14B88002BF3D1730602D0314643
:10154000FFF723FA204600F09CF831462046FFF7CB
:10155000F9FD0028E5D1D4F8B832C4F8D4029B686C
:10156000002BDED029462046BDE8704018477206A1
:10157000C7D03146FFF700FA80212046FFF7FCF97B
:10158000CFE77106BDD113064CBF00F1140100F581
:10159000AA7100230B600222204600F048F8C0E741
:1015A000B3F86431002BACD006F07F05142303FBA5
:1015B000050505F5AA7596E731462046FFF798F927
:1015C00008B1012392E7286091E70B7803704B780C
:1015D00043704B8843808B888380CB88C38070475F
:1015E00010B580210446FFF7C7F920460021BDE869
:1015F0001040FFF7C1B930B588B100240138234647
:101600000134055D002DFAD1DBB201335B0013809C
:101610000B7003234B70022310F8012F02B930BD69
:10162000CA545A1CD2B202338D54DBB2F4E710B55F
:1016300002241346C0E90622C0F894420A4600215B
:10164000FFF7B5F9002010BD08B513460A46002182
:10165000FFF7ADF9002008BD10B503241346C0E91B
:101660005622C0F894420A460021FFF7A9F900204B
:1016700010BD08B513460A460021FFF7A1F9002066
:1016800008BD08B504220023C0F8942219461A4662
:10169000FFF78DF9002008BD08B505220023C0F82A
:1016A000942219461A46FFF78BF9002008BD000066
:1016B00008B50B4B1A6842F400721A601A6842F4BB
:1016C00080621A601A6842F480721A60032000F087
:1016D0002FF80F2004F058F904F0FCF8002008BDA2
:1016E000003C0240034A044B11681B780B44136012
:1016F000704700BFAC160020EA000020014B1868BC
:10170000704700BFAC16002038B50446FFF7F6FF5F
:10171000631C1CBF054B1B78054618BFE418FFF778
:10172000EDFF431BA342FAD338BD00BFEA000020FF
:101730000749CA6822F4E0620302120403F4E0637A
:10174000120C134343F0BF6343F40033CB60704784
:1017500000ED00E0164B30B5DC68C4F30224C4F1A0
:101760000705231D042D28BF0425062B4FF0FF334A
:101770008CBF033C002403FA05F521EA0501A340D0
:1017800022EA0302A140002841EA0203ACBF00F1B3
:101790006040084A4FEA0313B8BF00F00F00DBB205
:1017A000AABF00F56140135480F8003330BD00BF7C
:1017B00000ED00E014ED00E0002808DB4209012301
:1017C00000F01F0003FA00F0014B43F822007047BD
:1017D00000E100E090F83530022B03D08023436510
:1017E000012070470268052380F83530136823F024
:1017F0000103136000207047094910B50C6924F4F7
:1018000040740C610C6944F440740C610C6944F040
:1018100001040C610260BFF36F8F436010BD00BF15
:10182000003C0240074B1A6922F440721A611A699F
:1018300042F400721A611A6942F001021A610160F1
:10184000704700BF003C0240074B1A6922F4407207
:101850001A611A6942F480721A611A6942F001022F
:101860001A610180704700BF003C0240204BDA68DB
:10187000D00606D51F49CA6942F01002CA6110227B
:10188000DA60DA68910606D51A49CA6942F0080298
:10189000CA612022DA60164BDA68520606D515496D
:1018A000CA6942F00402CA614022DA60DA681006AE
:1018B00006D51049CA6942F00202CA618022DA6084
:1018C0000B4BDA68D10507D50A49CA6942F0010213
:1018D000CA614FF48072DA60DA68920706D505496A
:1018E000CA6942F02002CA610222DA60704700BF72
:1018F000003C0240B0160020064B1A69002ABFBF08
:10190000054A5A6002F188325A60BABF1869C00F9E
:1019100000207047003C024023016745034A1369D9
:1019200043F0004313610020704700BF003C0240B9
:10193000114B70B500220446DA61FFF7DFFE0F4D50
:101940000646EB68DA030CD4EB68DB0744BF0123DF
:10195000EB60E86810F4F97007D0FFF787FF01200B
:1019600003E0611CEDD00CB9032070BDFFF7C6FE8B
:10197000801BA042E5D9F7E7B0160020003C0240EA
:10198000F7B5204E01931446327E012A07460D46D4
:1019900035D001224CF250303276FFF7C9FFB8B98A
:1019A000019BCFB9184B1A6922F440721A611A6967
:1019B0001A611A69E4B242F001021A612C704CF209
:1019C0005030FFF7B5FF104A136923F0010313618C
:1019D0000023337603B0F0BD012F04D1A1B2284615
:1019E000FFF732FFEBE7022F04D121462846FFF72D
:1019F00019FFE4E722462846FFF7FEFEDFE7022054
:101A0000E8E700BFB0160020003C024039B10129D0
:101A10001CD002290CBF4FF400714FF440710D4BE4
:101A20001A6922F440721A611A69114319611A691C
:101A300022F0F8021A611A6942EAC00040F002007E
:101A400018611A6942F480321A6170474FF480714C
:101A5000E5E700BF003C02402DE9F74FDFF8849135
:101A60005E4A00230D6801249C4004EA050CAC4347
:101A700040F0A5804D6805F003044FEA43080326B3
:101A8000671E06FA08F6012F6FEA060634D8876843
:101A900007EA060ECF6807FA08F747EA0E078760DD
:101AA000476827EA0C0EC5F300179F4047EA0E0768
:101AB0004760C76807EA060E8F6807FA08F747EA23
:101AC0000E07022CC76019D14FEAD30A00EB8A0A2D
:101AD00003F0070BDAF820704FEA8B0B4FF00F0E74
:101AE0000EFA0BFE27EA0E0E0F6907FA0BF747EA0C
:101AF0000E07CAF8207001E0032CDAD1076804FA57
:101B000008F43E40264315F4403F066057D04FF09E
:101B1000000ACDF804A0D9F84460314C46F4804660
:101B2000C9F84460D9F8446006F480460196019EE5
:101B300023F0030606F1804606F59C3603F0030EFB
:101B4000D6F808804FEA8E0E0F2707FA0EF7A0424C
:101B500028EA07073AD004F58064A04238D004F59B
:101B60008064A04236D004F58064A04234D004F5ED
:101B70008064A0420CBF0424072404FA0EF43C4302
:101B8000B46094686FEA0C06EF0254BF34404CEA2C
:101B900004049460D468AF0254BF34404CEA040497
:101BA000D4605468AF0354BF34404CEA040454601A
:101BB0001468ED0354BF34404CEA0404146001334C
:101BC000102B7FF44FAF03B0BDE8F08F5446D4E73D
:101BD0000124D2E70224D0E70324CEE7003C0140F1
:101BE00000000240003802400AB1816170470904D8
:101BF000FBE7F0B504468BB060B390F8BD340568E0
:101C000003F0FF021BB980F8BC24FEF7A7FD0323F5
:101C100084F8BD34EB6B254613F4807355F8100B34
:101C200008BF236101F0D2FF0FCD6E460FC60FCD66
:101C30000FC695E8030086E803002546271D97E8B0
:101C40000E0055F8100B01F00BFF064620B10223E1
:101C500084F8BD3401254EE00146206801F0BCFF48
:101C60003046D4F804C024264FF0010E0146C2B21B
:101C7000944500F101001CD8002324261946D8B24F
:101C8000844503F1010322D80FCD6E460FC60FCD58
:101C90000FC695E8030086E8030097E80E00206869
:101CA00002F01CF801230546F0B1022284F8BD249D
:101CB000D0E706FB0243C3E9121183F83DE083F845
:101CC0003C20A3F8442083F840105965CFE706FB79
:101CD0000042C2E9A21182F87D1282F87C0282F8E9
:101CE0008012C2F89412CAE784F83800206884F899
:101CF000BD3402F09BFB28460BB0F0BD10B5044686
:101D0000006894F8BC34012B15D0012384F8BC344E
:101D1000A36A012B06D1A369012B1EBF836B43F479
:101D20008033836301F04CFF206802F071FB0020D8
:101D300084F8BC0410BD0220FCE710B590F8BC2468
:101D4000012A04460BD0012280F8BC2480F8381008
:101D5000006802F04DFB002084F8BC0410BD022096
:101D6000FCE770B501F00F0606EBC60411F0800F1A
:101D700005464FEA84044FF024001FD000FB0650B4
:101D800004F13C010124294480F83D40CA604A78AE
:101D90000E700B7102B10E81022B04BF00234B7138
:101DA00095F8BC34012B12D00123286885F8BC3487
:101DB00002F057F8002085F8BC0470BD00FB065007
:101DC00004F51F710024294480F87D42DEE70220DB
:101DD000F3E710B5044601F00F0000EBC00311F06B
:101DE000800F4FEA83034FF0240216D002FB00421B
:101DF00003F13C010123214482F83D30087094F83E
:101E0000BC34012B12D00123206884F8BC3402F0CA
:101E100067F8002084F8BC0410BD02FB004203F503
:101E20001F710023214482F87D32E7E70220F3E7A7
:101E300038B501F00F05242404FB050104FB05045B
:101E400001F51F71C4F894320023C4F88C22C4F841
:101E50009C3284F87D3284F87C5203690068012B3F
:101E600008BFC4F89022DAB21DB902F08FF8002042
:101E700038BD02F05DF9FAE701F00F01242303FBFE
:101E80000100D0F89C02704738B501F00F052424FA
:101E900004FB050104FB05043C3163650023E36595
:101EA0000123E26484F83D3084F83C500369006803
:101EB000012B08BF2265DAB21DB902F067F80020D5
:101EC00038BD02F035F9FAE738B5436801F00F057F
:101ED0009D4204462CD811F0800F4FF024001ED0F4
:101EE00000FB054200FB054101233C3182F83D30F7
:101EF00001238B700D7094F8BC249A421AD020688C
:101F000084F8BC3402F020FA2DB9217C206804F258
:101F1000C44202F0DDFA002084F8BC0438BD00FBA6
:101F200001431A4603F51F71002382F87D32DFE773
:101F30000120F3E70220F1E738B5436801F00F0212
:101F40009A4204462AD802EBC20311F0800F4FEAEE
:101F500083034FF0240018D000FB024003F13C0142
:101F60000123214480F83D3000258D700A7094F8DB
:101F7000BC34012B14D00123206884F8BC3402F057
:101F80000EFA84F8BC54284638BD00FB024003F525
:101F90001F710023214480F87D32E5E70120F3E73B
:101FA0000220F1E701F00F0303EBC3030A064FEA37
:101FB00083034CBF03F13C0103F51F71014400682A
:101FC00002F060B82DE9F04F066889B0044630464B
:101FD00002F069FA0390002840F05681206802F070
:101FE00033FA002800F05081D6F808382068C3F38F
:101FF0000D23C4F8FC3402F027FA810748BF226899
:10200000206842BF536903F00203536102F01CFAD7
:10201000C20606F500652CD52268936923F01003EB
:102020009361D6F82080C8F34343022B08F00F07D2
:1020300040F02D8147F6F07318EA030F14D02423E3
:1020400003FB0747C8F30A19D7F88C124A463046F3
:1020500002F05AF9D7F88C324B44C7F88C32D7F8D3
:102060009C324B44C7F89C322268936943F01003BA
:102070009361206802F0E8F9030300F11A812068F7
:1020800002F0E2F947030CD5206802F0E9F927468F
:10209000049006F5106A4FF00009049B002B40F0F5
:1020A000D081206802F0D0F9002813DA6B6823F0A1
:1020B00001036B6094F8F434012B40F06B82002133
:1020C00084F8F414204600F0E7FA2268536903F01C
:1020D00000435361206802F0B7F901050AD5AB68E7
:1020E000DA0702D52046FEF7A9FB2268536903F4FC
:1020F00000635361206802F0A7F9C30433D56B680D
:10210000206823F001036B60102101F095FD06F5B6
:1021100010634FF67F3162680398824200F2428278
:10212000EB6943F00113EB61236B002B00F052824B
:10213000D5F8843043F00B03C5F884306B6C43F062
:102140000B036B64D6F80038217C206823F4FE630F
:10215000C6F8003804F2C44202F0BAF922685369A2
:1021600003F480535361206802F06EF9870416D59A
:10217000206802F09CF9206801F068FEE0602768A2
:1021800000F00CFD227B0146384601F0A9FC2046F8
:10219000FEF741FB2268536903F400535361206842
:1021A00002F052F9000707D52046FEF730FB2268FF
:1021B000536903F008035361206802F045F90106F2
:1021C00000F11382206802F03FF9C2020CD5A0464C
:1021D00006F5126901276368BB4200F21F8222687C
:1021E000536903F480135361206802F02DF98302D0
:1021F0002DD5D4F804E0234606F5326001218E4542
:1022000020D993F8A4C20268BCF1010F40F01C82EF
:10221000002A80F21982D4F8FC7402F4803207F0AC
:102220000107BA4240F0108283F8A3C2B26942F0BB
:102230008002B2617269170600F106826B6843F48E
:1022400000736B602268536903F4001353612068C4
:1022500002F0FAF8410007D52046FEF713FB22688A
:10226000536903F080435361206802F0EDF84207A0
:102270000AD523685D686B0702D52046FEF706FB8A
:10228000226853682B43536009B0BDE8F08F062BDA
:102290007FF4EAAE082204F2C441304602F034F87A
:1022A000242303FB0747C8F30A18D7F89C3243449A
:1022B000D8E6206802F0CCF806F530680490A24613
:1022C0000027049B002B3FF4DAAE049BD80776D599
:1022D0005FFA87FB2068594602F0CAF810F0010F38
:1022E00081461CD0206821690123C8F8083000F518
:1022F000306303EB47130129D0F840C09A6840F0DF
:102300008B80110707D5A5498C4508D9100406D53F
:102310004FF4004202E091065AD520229A6019F04B
:10232000080F21D00823C8F8083023689B481A6C8E
:1023300003F5306303EB47138242996804D909041B
:1023400044BF4FF40041996020460592FEF748FAD9
:10235000924B059A9A4207D92169012904D1206834
:1023600004F2C44202F0B4F819F0100F1CBF10239D
:10237000C8F8083019F0020F14D073691B0642BF69
:102380006B6843F480636B609AF87F32012B06D14F
:1023900000238AF87F3259462046FEF76BFA022363
:1023A000C8F8083019F0200F1CBF2023C8F80830E7
:1023B00019F4005F1CBF4FF40053C8F80830049BA9
:1023C0005B080137049308F120080AF1240A78E732
:1023D00012F0280FA3D171498C4501D9120497D46A
:1023E0001A69DAF89832C2F312029B1ACAF89C32C0
:1023F0006FB9D4F894222AB904F2C442012102F040
:1024000067F804E0D4F88C221344C4F88C3259469F
:102410002046FEF7EBF982E761498C4507D11104AC
:102420003FF576AF9006F2D520229A60EFE7002FB5
:10243000EDD1D4F89432002BE9D104F2C4423946EC
:10244000DDE7049BD80740F19C805FFA89FB206898
:10245000594602F016F810F0010F804620D00121F5
:102460006B6B09F00F0201FA02F223EA02036B63BD
:102470000B46CAF80810216999420DD1D7E91223F9
:102480001344FB64B9F1000F06D1636D23B92068D2
:1024900004F2C44202F01CF859462046FEF7AFF998
:1024A00018F0080F1CBF0823CAF8083018F0100FE6
:1024B0001CBF1023CAF8083018F0400F1CBF40237F
:1024C000CAF8083018F0020F12D04946304601F021
:1024D000B3FB97F83F30012B07D14FF0000387F88B
:1024E0003F3059462046FEF7C9F90223CAF80830A2
:1024F00018F0800F45D0FA6D7B6D9A4241D89B1A37
:10250000BA6C21680591934228BF134603339B0898
:10251000069301F5106303EB49130793079B069895
:102520009969FA6D7B6D89B2814228D39A420CD3A6
:10253000059B09F00F01D3F83428012000FA01F1BE
:1025400022EA0102C3F834281BE0A3EB0208BB6CAB
:102550000598984528BF984608F103039B08069301
:10256000237C0093F96C1FFA88F35A4601F0CCFDE6
:10257000FB6C4344FB64FB6D4344FB65CEE79A422E
:10258000D6D2049B5B0809F10109049324370AF1B0
:10259000200A82E52046FEF769F996E50A30544F95
:1025A0000A31544F99601A6822F400121A60C3F875
:1025B0000812D3F8002222F40012C3F80022D3F844
:1025C000002242F00062C3F80022039A0132039213
:1025D0002033A0E56B6943F4005343F02B036B6198
:1025E0002B6943F00B032B61ACE5B36923F0800347
:1025F000B361012704F27F284FF024096368BB42CE
:102600007FF6E0AD09FB07F318F80330012B03D187
:10261000F9B22046FFF7C6FC0137EFE798F86430BF
:10262000D9F80020012B09D1002A07DA67F07F01D1
:1026300088F86330C9B22046FFF7B4FC013708F1CF
:10264000240809F12009C6E5013124332030D6E5FC
:10265000006870B51204446A19B9224382620020EE
:1026600070BD836A4D1E04EB134400235E1CDBB275
:102670009D4205D83F3100EB810022434260EEE7E6
:10268000403300EB83035B6804EB13443346EDE710
:102690000368002059627047704700002DE9F3413C
:1026A000044640B30368DD0710D4236898075ED45E
:1026B00023681A0700F1A08023685B0700F1C0803F
:1026C000A069002840F0288100202BE08F4B9A68F9
:1026D00002F00C02042A07D09A6802F00C02082AC1
:1026E0000BD15A68510208D5884B1B689A03DCD578
:1026F0006368002BD9D1012014E06268B2F5803FF5
:1027000013D11A6842F480321A60FEF7F7FF7F4E49
:10271000054633689B03C8D4FEF7F0FF401B6428CE
:10272000F7D9032002B0BDE8F081784DB2F5A02FB3
:102730002B6807D143F480232B602B6843F480334C
:102740002B60E2E723F480332B602B6823F4802393
:102750002B60002AD9D1FEF7D1FF06462B689F03D4
:10276000A3D5FEF7CBFF801B6428F7D9D9E7674BC9
:102770009A6812F00C0F07D09A6802F00C02082A2F
:1027800011D15B685E020ED4604A13689D0702D5C2
:10279000E368012BAFD11368216923F0F80343EA02
:1027A000C103136084E7E268594BB2B101221A6099
:1027B000FEF7A4FF554D06462B68980707D52B68F2
:1027C000226923F0F80343EAC2032B6070E7FEF7A7
:1027D00095FF801B0228EFD9A3E71A60FEF78EFF52
:1027E0004A4E0546336899077FF562AFFEF786FFCC
:1027F000401B0228F6D994E76269454B82B1012259
:10280000C3F8802EFEF77AFF404E0546736F9F0790
:102810003FF552AFFEF772FF401B0228F6D980E762
:10282000C3F8802EFEF76AFF384E0546736F98078F
:102830007FF542AFFEF762FF401B0228F6D970E732
:10284000324B1A6C12F0805228D101921A6C42F06D
:1028500080521A641B6C03F080530193019B012783
:102860002C4D2B68D9051BD5A368284D012B27D1EA
:102870002B6F43F001032B67FEF740FF234E054605
:1028800041F28838336F9B0739D5002F3FF418AFDA
:102890001E4A136C23F08053136411E70027DFE70F
:1028A0002B6843F480732B60FEF728FF06462B68E5
:1028B000DA05D9D4FEF722FF801B0228F7D930E7CA
:1028C000052B04D12B6F43F004032B67D0E72A6F4D
:1028D00022F001022A672A6F22F004022A67002BE5
:1028E000CAD1FEF70BFF41F2883806462B6F9807D6
:1028F000CBD5FEF703FF801B4045F7D911E7FEF764
:10290000FDFE401B4045BDD90BE700BF003802402B
:102910000000474200700040364DAB6803F00C03E6
:10292000082B3DD0344B002202281A662BD1FEF72B
:10293000E5FE06462B6899011FD4D4E907321343FC
:10294000626A43EA8213E26A43EA0263A26A5208B5
:10295000013A43EA02436B60274B264D01221A6677
:10296000FEF7CCFE04462B689A013FF5ADAEFEF7AC
:10297000C5FE001B0228F6D9D3E6FEF7BFFE801B7A
:102980000228D7D9CDE6FEF7B9FE04462B689B0195
:102990007FF59AAEFEF7B2FE001B0228F6D9C0E61C
:1029A00001283FF4BFAE6B68E26903F480019142F5
:1029B0007FF4A1AE216A03F03F028A427FF49BAE0E
:1029C000616A47F6C0721A40B2EB811F7FF493AE82
:1029D000A26A520803F44031013AB1EB024F7FF48E
:1029E0008AAEE26A03F07063B3EB026F3FF46CAE41
:1029F00081E600BF0038024000004742014B01223F
:102A0000DA64704700004742134908B58B6803F049
:102A10000C03042B1CD0082B1CD14A684B68496856
:102A200013F4800314BF0D480D48C1F3881118BF7B
:102A3000002302F03F02A1FB0001FDF7D1FB064B92
:102A40005B68C3F3014301335B00B0FBF3F008BDE7
:102A50000248FCE70248FAE70038024040787D016E
:102A60000024F4002DE9F0410D46044610B9012080
:102A7000BDE8F081444B1A6802F007028A4228D36D
:102A8000226897072DD4D00741D43F4B1A6802F033
:102A90000702AA4266D8226851076CD4130707D5EB
:102AA0003A4A2169936823F4604343EAC10393607F
:102AB000FFF7AAFF354B364A9B68C3F30313D35C79
:102AC000D840344B1860344B186802F05DFF00208A
:102AD000CEE7CAB21A701B6803F007038B42C6D157
:102AE000CEE72A4B12F0040F1EBF996841F4E05163
:102AF0009960160742BF996841F460419960234983
:102B0000A0688B6823F0F00303438B60BBE7626827
:102B10001E4B012A1CD11B6813F4003FA7D01B4E8B
:102B2000B36823F003031343B360FEF7E7FD41F2FC
:102B300088380746B368626803F00C03B3EB820F72
:102B4000A3D0FEF7DBFDC01B4045F3D903208FE780
:102B5000911E01291B6802D813F0007FDEE713F0F5
:102B6000020FDBE7EAB21A701B6803F00703AB42FF
:102B70007FF47DAF8FE70549E0688B6823F4E0536D
:102B800003438B608AE700BF003C024000380240EC
:102B9000148A0008F0010020EC000020014B1868A6
:102BA000704700BFF0010020044B054A9B68C3F347
:102BB0004233D35C034A1068D84070470038024063
:102BC000248A0008F00100200F2303600B4B9A6851
:102BD00002F0030242609A6802F0F00282609A6892
:102BE00002F4E052C2609B68DB0803F4E053036127
:102BF000034B1B6803F007030B607047003802406B
:102C0000003C02407047000010B5044CE3681B060E
:102C100003D5FFF7F7FF8023A37310BD00380240F0
:102C20002DE9F3411D46174688460646FEF766FD28
:102C30003D442C1AFEF762FD224B1B68C3F3CB33D5
:102C40000546634332680193936838EA030301D071
:102C500000202DE07B1CF7D0FEF750FD401BA0426A
:102C600029D333685A6822F0E0025A607268B2F5DC
:102C7000827F0AD1B268B2F5004F02D0B2F5806F00
:102C800003D11A6822F040021A60B26AB2F5005FFE
:102C900007D11A6822F400521A601A6842F40052EE
:102CA0001A60012386F85130002386F85030032043
:102CB00002B0BDE8F081019B002B019B08BF0024FE
:102CC000013BBFE7F001002038B513464268B2F57A
:102CD000827F04461FD18268B2F5004F02D0B2F560
:102CE000806F07D125682868B2F5806F20F040001A
:102CF000286007D00A4680212046FFF791FF20B9BF
:102D0000002038BD0A460121F6E7636D43F0200339
:102D100063650320F5E70A460121EEE737B5134660
:102D2000124A1568124AB5FBF2F54FF47A72554310
:102D300042680195B2F5827F04460BD10A46802194
:102D4000FFF76EFF78B1636D43F0200363650320E6
:102D500003B030BD019B33B1019B013B019323685C
:102D60009B681B06F6D40020F2E700BFF0010020AC
:102D700000366E0110B50446002855D0436A002B7A
:102D80004ED14268B2F5827F00D0C3610023A362B6
:102D900094F8513003F0FF0223B984F85020204604
:102DA00002F0B4FD2168A068A269022384F85130C2
:102DB0000B6823F040030B60636800F4044003F4E5
:102DC00082730343E06800F400600343206900F06D
:102DD00002000343606900F00100034302F4007045
:102DE0000343E06900F038000343206A00F08000EC
:102DF0000343A06A00F4005003430B60636A120CA3
:102E000003F0100302F004021A434A60CB6923F472
:102E10000063CB6100200123606584F8513010BD50
:102E20000023C0E90433B1E70120F8E72DE9F341BD
:102E30001E4690F85030012B04460D46174600F010
:102E4000A180012380F85030FEF758FC94F85130EF
:102E5000012B8046D8B240F09380002D5ED0002F29
:102E60005CD0A2682563032384F85130B2F5004F8B
:102E70004FF000036365C4E91033E786A363A387BB
:102E8000E387A786236807D11A6822F040021A60F8
:102E90001A6842F480421A601A68E16852065EBFFE
:102EA0001A6842F040021A60B1F5006F626841D1C1
:102EB0000AB1012F07D135F8022BDA602563E38EC2
:102EC000013B9BB2E386E38E9BB2A3B942463146F7
:102ED0002046FFF723FF00284FD1A36833B90193A1
:102EE0002368DA6801929B680193019B606D00384A
:102EF00018BF012012E022689368980705D5236B5C
:102F000033F8021BD1602363D9E7FEF7F7FBA0EB90
:102F10000800B0420BD3711CD5D00320012384F8E4
:102F20005130002384F8503002B0BDE8F081002E0B
:102F3000C9D1F2E70AB1012F08D12A781A73236B9D
:102F400001332363E38E013B9BB2E386E38E9BB2A6
:102F5000002BBBD023689A68920702D5226B1278A7
:102F6000ECE7FEF7CBFBA0EB0800B04202D3731CEA
:102F7000ECD0D2E7002EE9D1CFE720236365ACE7A0
:102F80000220CBE70220CFE72DE9F7431E4690F859
:102F900050300A9F012B04460D46914600F0E68012
:102FA000012380F85030FEF7A9FB94F85130626895
:102FB000012B8046D9B20AD0B2F5827F40F0D4808E
:102FC000A368002B40F0D080042940F0CD80002D74
:102FD00040D0B9F1000F3DD0002E3BD094F85130D5
:102FE000C4F83890042B1CBF052384F8513000230B
:102FF0006365C4E910332368E687E6861968A68707
:10300000490658BF1968256358BF41F04001A6869C
:1030100058BF1960E168B1F5006F52D10AB1012EB5
:1030200007D135F8022BDA60E38E2563013B9BB2B2
:10303000E3860125E38E9BB273B9E38F9BB25BB944
:10304000424639462046FFF769FE002800F081809D
:103050002023636501202BE021688B689E070DD536
:10306000E38E9BB253B14DB1236B33F8022BCA6090
:103070002363E38E013B9BB2E38600258A6812F04E
:1030800001020CD0E38F9BB24BB1A36BC96823F84C
:10309000021BA363E38F013B9BB2E3871546FEF758
:1030A0002DFBA0EB0800B842C4D3781CC2D003208B
:1030B000012384F85130002384F8503003B0BDE878
:1030C000F0830AB1012E08D12A781A73236B0133D9
:1030D0002363E38E013B9BB2E38601252DE022684A
:1030E000936899070ED5E38E9BB25BB155B1236B04
:1030F0001B781373236B01332363E38E013B9BB275
:10310000E38600252268916811F001010DD0E38F5C
:103110009BB253B1A36BD2681A70A36B0133A36344
:10312000E38F013B9BB2E3870D46FEF7E7FAA0EB86
:103130000800B8420AD37B1CB9D1E38E9BB2002BA6
:10314000CDD1E38F9BB2002BC9D179E7002FF4D109
:10315000ADE7A368002BABD123680190DA68019238
:103160009B680193019BA3E70220A1E70220A5E74A
:103170002DE9F7431D464368B3F5827F044689462F
:1031800017460CD1836853B9042380F85130134695
:1031900000950A46FFF7F8FE03B0BDE8F08394F807
:1031A0005030012B00F08680012384F85030FEF768
:1031B000A5FA94F85130012B8046D8B278D1B9F1F4
:1031C000000F5CD0002F5AD0A268C4F838900026B7
:1031D0000423B2F5004F84F85130C4E910666665E7
:1031E0002368E787A7872663A686E68607D11A683D
:1031F00022F040021A601A6822F480421A601A68AB
:1032000056065EBF1A6842F040021A60E368F3B1E6
:10321000E38F9BB2FBB123689A68D20739D5DA688D
:10322000A36B23F8022BA363E38F013B9BB2E387DD
:10323000EEE723689A68D00718D5A26B1B7B137042
:10324000A36B0133A363E38F013B9BB2E387E38F5F
:103250009BB2002BEDD1424629462046FFF734FDB4
:1032600018BB606D003818BF012008E0FEF746FA71
:10327000A0EB0800A84209D3691CE8D00320012371
:1032800084F85130002384F8503085E7002DDED1DA
:10329000F4E7FEF733FAA0EB0800A84202D36B1C58
:1032A000B6D0EBE7002DB3D1E8E720236365D8E77C
:1032B0000220E4E702206FE770470000F0B50368E2
:1032C0005D689A68560685B004464FEA9211C2F3CB
:1032D000801708D4D60706D56E0604D5036C05B052
:1032E000BDE8F0401847960704D5280602D5636C60
:1032F0002046F4E741EA5211C2F3002001F0010137
:10330000560951EA000257D0AA0655D57FB194F864
:103310005120032A4FF0000148D0626D42F00402B0
:1033200062650091DA6800929A680092009AF1074B
:103330000CD5626D42F001026265002202929A6829
:1033400002921A6822F040021A60029A40B1626D3D
:1033500042F008026265002203929A680392039A7F
:10336000626D4AB35A6822F0E0025A60012284F882
:103370005120AA0722D05A68E06C22F003025A605A
:1033800040B1104B0365FEF725FA18B1636D43F0A9
:1033900040036365A06C78B10A4B0365FEF71AFA27
:1033A00050B1636D43F04003636505E00191DA6855
:1033B00001929B680193019B05B0F0BD2046FFF789
:1033C0007BFFF9E7C933000808B5806B0023C3878A
:1033D000C386FFF771FF08BD7047000090F83D30CD
:1033E000012B28D1022380F83D300368DA6842F0CF
:1033F0000102DA60114A934212D0B3F1804F0FD02C
:10340000A2F57C4293420BD002F58062934207D032
:1034100002F58062934203D002F59A32934204D1BE
:103420009A6802F00702062A03D01A6842F00102E5
:103430001A60002070470120704700BF0000014063
:10344000704770477047704703681A69910710B555
:1034500004460ED5DA6892070BD56FF002021A61A6
:10346000012202779B699B0777D0FFF7EAFF0023D1
:10347000237723681A69500710D5DA6851070DD5EC
:103480006FF004021A61022222779B6913F4407FD5
:10349000204668D0FFF7D5FF0023237723681A69F9
:1034A00012070FD5DA6810070CD56FF008021A6101
:1034B00004222277DB69990720465AD0FFF7C1FF23
:1034C0000023237723681A69D20610D5DA68D0065C
:1034D0000DD56FF010021A6108222277DB6913F410
:1034E000407F20464BD0FFF7ACFF002323772368B3
:1034F0001A69D10708D5DA68D20705D56FF001023D
:103500001A61204601F0FCFE23681A69100608D5EE
:10351000DA68110605D56FF080021A61204600F0C6
:10352000B0F823681A69520608D5DA68500605D53E
:103530006FF040021A612046FFF785FF23681A6981
:10354000910622D5DA6892061FD56FF02002204638
:103550001A61BDE8104000F093B8FFF771FF2046F4
:10356000FFF770FF83E7FFF76BFF2046FFF76AFF67
:1035700092E7FFF765FF2046FFF764FFA0E7FFF73C
:103580005FFF2046FFF75EFFAFE710BD244A0368E8
:1035900090420ED0B0F1804F0BD0A2F57C42904209
:1035A00007D002F58062904203D002F5806290421B
:1035B00015D14A6823F070031343194A904219D079
:1035C000B0F1804F16D0A2F57C42904212D002F5A5
:1035D000806290420ED002F5806290420AD0114A79
:1035E000904207D002F58062904203D002F58062DB
:1035F000904203D1CA6823F4407313434A6923F00D
:103600008003134303608B68C3620B688362044BBF
:10361000984204BF0B69036301234361704700BFF5
:10362000000001400040014010B5044630B390F85E
:103630003D3003F0FF021BB980F83C20FFF7CCFEC1
:103640000223206884F83D30211DFFF79FFF0123EE
:1036500084F84630002084F83E3084F83F3084F807
:10366000403084F8413084F8423084F8433084F8A4
:10367000443084F8453084F83D3010BD0120FCE72B
:10368000704770472DE9F04702460D6895FAA5F49A
:103690004FF0010EB4FA84F403264FF00F0C35FA04
:1036A00004F001D1BDE8F0870EFA04F32B406DD091
:1036B0004868471E012F1ED8D2F8088093FAA3F756
:1036C000B7FA87F793FAA3F97F0006FA07F728EA13
:1036D0000708B9FA89F98F684FEA490907FA09F723
:1036E00048EA07079760576827EA0308CF685F43EF
:1036F00048EA07075760D2F80C8093FAA3F7B7FAA5
:1037000087F793FAA3F97F0006FA07F728EA070874
:10371000B9FA89F90F694FEA490907FA09F748EA3E
:1037200007070228D7601DD193FAA3F7B7FA87F7E6
:10373000072FD1F814902BDCD2F820A093FAA3F82D
:10374000B8FA88F893FAA3F7B7FA87F74FEA880828
:103750000CFA08F8BF002AEA080809FA07F748EA4D
:1037600007071762D2F8008093FAA3F7B7FA87F732
:1037700093FAA3F3B3FA83F37F0006FA07F75B002B
:1037800028EA070700FA03F33B431360013486E796
:10379000D2F824A01F0A97FAA7F8B8FA88F897FA7F
:1037A000A7F7B7FA87F74FEA88080CFA08F8BF00BE
:1037B0002AEA080809FA07F748EA07075762D1E733
:1037C000034B044A9B68C3F30313D35CD840704790
:1037D00000380240148A0008034B044A9B68C3F374
:1037E0008223D35CD840704700380240248A000806
:1037F000034B044A9B68C3F34233D35CD840704701
:1038000000380240248A00080E4A0F49536813F416
:10381000800F0E4B18BF0B46082810D15068516816
:10382000526800F03F00B3FBF0F0C1F38813584337
:10383000C2F3014301335B00B0FBF3F0704700209B
:10384000704700BF0038024040787D010024F4003A
:10385000064B986800F00C00042803D0082803D118
:10386000FFF7D2BF02487047024870470038024055
:1038700040787D010024F40010B50446FFF7E8FF0E
:103880002060FFF79DFF6060FFF7A6FFA060606803
:10389000FFF7AEFFE06010BD234A036890420ED0F0
:1038A000B0F1804F0BD0A2F57C42904207D002F5D8
:1038B0008062904203D002F58062904215D14A683E
:1038C00023F070031343184A904219D0B0F1804F8F
:1038D00016D0A2F57C42904212D002F5806290424E
:1038E0000ED002F5806290420AD0104A904207D072
:1038F00002F58062904203D002F58062904203D1CB
:10390000CA6823F44073134303608B68C3620B8857
:103910008362054B984204BF0B690363436943F01C
:103920000103436100207047000001400040014056
:103930007FB5C3689B0404460D4602D5012004B040
:1039400070BD4B68C968C2680B4329690B43A969FC
:1039500022F416420B4322F00C021343C3600369A6
:10396000AA6823F440531343036143696A6923F44B
:103970004073134343616846FFF77EFF224B9C422E
:1039800028D103990029D9D02B68002BD6D0AA6959
:103990001920B2F5004FA1FB000124D1DA184FF035
:1039A000000545EB0503FCF71BFC6421B0FBF1F6B9
:1039B00001FB1603DB003233B3FBF1F303F0070224
:1039C0005B0002EB061203F4F87313449BB2A3608E
:1039D0000020B4E70D4B9C4201D10299D2E70C4B79
:1039E0009C42ABD1CDE79A009B0FFCF7F9FB642218
:1039F000B0FBF2F102FB11031B013233B3FBF2F314
:103A000003EB0113E2E700BF001001400044004057
:103A10000014014082B00023104A0193019B01333E
:103A20000193019B934216D80369002BF6DA002319
:103A300001930369094A43F001030361019B0133C8
:103A40000193019B934206D8036913F00103F5D15A
:103A5000184602B070470320FBE700BF400D03008B
:103A600084B038B505AD85E80E000A9B012B0446ED
:103A700025D1836B23F480338363C36823F48403E9
:103A800023F04003C360C36823F44013C360119B59
:103A9000012B02BFC36843F48013C360FFF7BAFF72
:103AA000089B012B07D1A36843F00603A360A3681A
:103AB00043F02003A360BDE8384004B07047C368FA
:103AC00043F04003C360FFF7A5FF0E9B23B9A36B30
:103AD00043F48033A363E3E7A36B23F48033F9E774
:103AE000022A4AD1274B284A0B44934239D9274B03
:103AF000274A0B44934236D9264AA1F57403A3F50D
:103B00001053934231D9244AA1F18373A3F5E743BB
:103B100093422CD3214B224A0B44934229D9214B67
:103B2000214A0B44934226D3204B214A0B44934213
:103B300023D3204AA1F1B773A3F5585393421ED360
:103B40001D4B1E4A0B44934234BF07230623C26811
:103B500022F47052C260C26842EA8323C36000202C
:103B600070470F23F3E70E23F1E70D23EFE70C2354
:103B7000EDE70B23EBE70A23E9E70923E7E708234F
:103B8000E5E700BF405327FFFF340C00401E1BFF3A
:103B90003F420F007F4F120020D6130060B6E5FEB3
:103BA0005FE3160000D3CEFE40771B00C05BB3FE80
:103BB000C091210020753800E05459FEE09C41007E
:103BC000836843F00103836000207047836823F01B
:103BD000010383600020704738B5C368012923F0D2
:103BE000C0430546C36010D1C36843F00053C360AF
:103BF00000240120FDF788FD6B69D90704F1010459
:103C000015D4322CF5D1012038BD0029FBD1C36871
:103C100043F08043C3600C460120FDF775FD6B69DE
:103C2000DA0704F1010402D5322CF5D1EBE7A4F157
:103C3000320358425841E7E782B00023104A01930B
:103C4000019B01330193019B934216D80369002B1A
:103C5000F6DA8901002341F02001094A019301614C
:103C6000019B01330193019B934206D8036913F032
:103C70002003F5D1184602B070470320FBE700BFD0
:103C8000400D030082B000230F4A0193019B0133D2
:103C90000193019B934214D80369002BF6DA0023A9
:103CA0000193094A10230361019B01330193019B96
:103CB000934206D8036913F01003F5D1184602B0F9
:103CC00070470320FBE700BF400D0300D0F8003829
:103CD0001943C0F8001800207047000084B02DE997
:103CE000F843044609A880E80E00139D00230E4601
:103CF000194603F1400204EB820201330F2B51609D
:103D0000F7D104F50067002D6CD17B6843F0020306
:103D10007B60A36B43F40013A363A36B23F4002322
:103D2000A363A36B23F48023A3630023C4F8003EA2
:103D3000D4F80038C4F800380E9B012B5CD10B99E5
:103D4000002957D12046FFF7C1FF10212046FFF779
:103D500073FF01462046FFF795FF0843C0B20023DA
:103D600000383B6118BF01207B6104F51062FB61E4
:103D700019464FF0904C4FF0006E4FF67F38B3422B
:103D80003CD1002204F5306311464FF0904C4FF0C7
:103D9000006E4FF67F38B24243D13B6923F4807303
:103DA0003B610023A3616FF0804363610C9B1BB9EF
:103DB000A36943F01003A361A269234B1343A361DA
:103DC0000F9B1BB1A36943F00803A361012D01BF41
:103DD000A36943F0804343F00403A361BDE8F843C3
:103DE00004B07047A36B23F40013A363A36B43F4E5
:103DF000002399E71946A5E70321A3E7D2F800902D
:103E0000B9F1000F0BDA3BB9C2F800E011610133E0
:103E1000C2F808802032B2E7C2F800C0F6E71160AD
:103E2000F4E7D3F80090B9F1000F0BDA3AB9C3F810
:103E300000E019610132C3F808802033ABE7C3F812
:103E400000C0F6E71960F4E700383C80D0F8083885
:103E500013F0060004D013F0020F14BF02200F204D
:103E6000704730B50D78012405F00F039C404B7866
:103E700000F50062012B00EB4510D36918D11C43FB
:103E8000D461D0F800391A0410D4CA68D0F80049B7
:103E9000C2F30A030A79234343EA824343EA855380
:103EA00043F0805343F40043C0F80039002030BD94
:103EB00043EA0444D461D0F8003B1B04F6D4CB6839
:103EC000D0F8002BC3F30A0313430A7943EA824371
:103ED00043F0805343F40043C0F8003BE6E70000A2
:103EE00010B50A784978012900EB421300F500600B
:103EF00002F00F0222D1D3F8001900290BDAD3F80F
:103F0000001941F00061C3F80019D3F8001941F01D
:103F10008041C3F80019C46B012101FA02F224EABE
:103F20000204C463C16921EA0202C261D3F8001924
:103F3000144A0A40C3F80029002010BDD3F8001B22
:103F400000290BDAD3F8001B41F00061C3F8001B15
:103F5000D3F8001B41F08041C3F8001BC46B4FF441
:103F6000803101FA02F224EA0204C463C16921EA41
:103F70000202C261D3F8001B034A0A40C3F8002BB7
:103F8000DAE700BF007833EC0078F3EF4B78DFF826
:103F9000F0C0F0B50E788D69384F012B00EB461458
:103FA00046D104F51063BDB91D692F401F611D691D
:103FB00045F400251D611D6905EA0C05012A1D61F6
:103FC00023D14A6902B15A61D4F8003943F004435D
:103FD000C4F800390020F0BDD3F810E00EEA0C0C54
:103FE000C3F810C0D3F810C00CEA07071F61CF68F0
:103FF000AF421D6938BF8F6145F400251D618D6991
:104000001F69C5F312053D43D8E7D4F8003943F0E2
:104010000443C4F800398B69002BDBD0D0F8342876
:1040200006F00F060123B3401343C0F83438D1E73C
:10403000D4F8100B00EA0C00C4F8100BD4F8100BE5
:10404000384004F530631861C86805B188611D699E
:10405000C86145F400251D611D69C0F312002843A5
:10406000012A186102D10A6902B15A61D4F8003BF1
:1040700043F00443C4F8003BACE700BFFFFF07E098
:104080000000F8FF82B000234A7801930B78012AE0
:104090004FEA43131ED100F51060C118C258002A20
:1040A00002DB002002B07047C25842F00062C250EA
:1040B000C25842F08042C25042F21072019B01335A
:1040C0000193019B934201D90120EBE70B68002B80
:1040D000F4DBE6E700F53060C118C258002AE0DAE8
:1040E000C25842F00062C250C25842F08042C250F0
:1040F00042F21072019B01330193019B9342E3D87A
:104100000B68002BF6DBCCE710B59DF8084044B9EE
:10411000033301329B0800EB023001EB83038B4237
:1041200001D1002010BD51F8042B0260F7E7000018
:104130002DE9F3414D780F788B690E79DFF8BCC11A
:10414000DFF8BCE1012D00EB471440F08E8004F550
:104150001065D5F810806BBB08EA0C0CC5F810C0D0
:10416000D5F810C04CF4002CC5F810C0D5F810C01C
:104170000CEA0E0EC5F810E0012A4ED14B6903B1CE
:104180006B61012E0CD1D0F8083813F4807FD4F87D
:1041900000390CBF43F0005343F08053C4F800399A
:1041A000D4F8003943F00443C4F80039002002B0C9
:1041B000BDE8F08108EA0E0EC5F810E0D5F810E071
:1041C0000EEA0C0CD1F80CE0C5F810C00EEB030C95
:1041D0000CF1FF3CBCFBFEFEDFF828C1D5F81080D7
:1041E0000CEACE4C4CEA080CC5F810C0D5F810E02B
:1041F000C3F3120C4CEA0E0C012EC5F810C0BBD153
:10420000D5F810C02CF0C04CC5F810C0D5F810C0BF
:104210004CF0005CC5F810C0AEE7D4F80059012E90
:1042200045F00445C4F800590BD0002BBED0D0F89F
:10423000343807F00F02012797401F43C0F8347845
:10424000B4E7D0F8085815F4807FD4F800590CBFB3
:1042500045F0005545F08055C4F8005900920969B1
:104260009BB23A46FFF750FFA0E7D4F8105B05EA8F
:104270000E05C4F8105BD4F8105B05EA0C0504F5D4
:1042800030673D61CD681BBB3B69C5F312051D431B
:104290003D613B6943F400233B61012A02D10B6974
:1042A00003B17B61012E0CD1D0F8083813F4807F64
:1042B000D4F8003B0CBF43F0005343F08053C4F8E4
:1042C000003BD4F8003B43F00443C4F8003B6DE7E7
:1042D0002B44DFF830C0D7F810E0013BB3FBF5F317
:1042E0009BB25D430CEAC34343EA0E03CD613B61DD
:1042F0003B69C5F312051D433D61CEE7FFFF07E0B3
:104300000000F8FF0000F81F034670B59008002475
:1043100002F0030203F58055844210D301EB8000C4
:1043200062B103F580531C680023D90024FA01F11F
:10433000C154013399B28A42F7D1104470BD2E683E
:1043400041F824600134E7E74A780B78012A00EB52
:10435000431012D1D0F80029002A06DB2BB1D0F887
:10436000003923F08043C0F80039D0F8003943F415
:104370000013C0F8003900207047D0F8002B002A45
:1043800006DB2BB1D0F8003B23F08043C0F8003BA4
:10439000D0F8003B43F40013C0F8003BEBE70B7888
:1043A0004A7800EB43100B79012AA3F10203DBB238
:1043B0000FD1D0F80029012B22F40012C0F80029F7
:1043C00005D8D0F8003943F08053C0F800390020F8
:1043D0007047D0F8002B22F40012012BC0F8002BFC
:1043E0009EBFD0F8003B43F08053C0F8003BEEE79F
:1043F000D0F8003823F4FE63C0F80038D0F8003855
:10440000090101F4FE611943C0F80018002070474B
:10441000D0F8003E23F00303C0F8003ED0F8043883
:1044200023F00203C0F8043800207047D0F8003EA3
:1044300023F00303C0F8003ED0F8043843F0020331
:10444000C0F8043800207047426980691040704706
:10445000D0F8183800F50060C0691840000C7047AB
:10446000D0F8183800F50060C069184080B2704775
:1044700000EB411100F50060D1F8082B40691040B5
:10448000704710B5D0F81048D0F8343800EB411020
:1044900001F00F01CB4000F51060DB018068DBB25A
:1044A0002343184010BD406900F001007047D0F868
:1044B000003923F4FF6323F00703C0F80039D0F874
:1044C000043843F48073C0F80438002070470000BB
:1044D00030B5056C104CA54200F5306303D9D0F817
:1044E000004B002C16DB00241C611C6944F40024E2
:1044F0001C611C6944F018041C611C69012944F00A
:10450000C0441C6101BF5A61D0F8003B43F08023D6
:10451000C0F8003B002030BD0A30544F054B1A6BE9
:1045200002431A631B6B82B018400190019B02B0DA
:10453000704700BF00380240024800221021FDF7FA
:1045400053BB00BF00000240024801221021FDF7CA
:104550004BBB00BF000002400A464FF0FF3301464C
:104560000148FEF705BE00BFE036002007B5012177
:104570000DF10700FFF7F0FF9DF8070003B05DF8AD
:1045800004FB00000A464FF0FF3301460148FEF7E6
:104590004DBC00BFE036002007B501218DF80700B3
:1045A0000DF10700FFF7EEFF03B05DF804FB00F02C
:1045B0000700C0F10702031D042A28BF0422062BAE
:1045C0004FF0FF3303FA02F38CBF0338002021EAD7
:1045D000030101FA00F070470FB400B5C3B044AB5B
:1045E0004FF4807153F8042B019302A801F0D4FF1B
:1045F00002A8FBF777FF81B202A8FCF721F843B0CD
:104600005DF804EB04B0704710B50749044601F0AB
:104610007CFF0649204601F069FF20460449BDE8B9
:10462000104001F063BF00BF698900080701002046
:1046300084780008024B1A685206FCD5586070470F
:104640000010014010B500210446CBB20131E05CFE
:1046500000B910BDFFF7EEFFF7E7000070B5037873
:104660004B4D4C4C412B19D143784D2B40F0A6803B
:104670008378312B40F0B781C378312B04D10123EB
:104680002B700378412B09D1C378302B40F0888000
:1046900000232B700378412B00F082802A783E4B58
:1046A000012A18BF4FF480329A616A78012A0CBF40
:1046B00002224FF400329A61AA78012A0CBF042228
:1046C0004FF480229A61EA78012A0CBF08224FF445
:1046D00000229A612A79012A0CBF10224FF480121D
:1046E0009A616A79012A0CBF20224FF400129A6164
:1046F000AA79012A0CBF40224FF480029A61EA791C
:10470000012A0CBF80224FF400029A612278012A0C
:104710000CBF4FF480724FF080729A616278012A68
:104720000CBF4FF400724FF000729A61A278012A18
:104730000CBF4FF480624FF080629A61E278012AE8
:104740000CBF4FF480524FF080529A612279012AB7
:104750000CBF4FF400524FF000529A616279012A67
:104760000CBF4FF480424FF080429A61A279012A37
:104770000CBF4FF400424FF000429A61E379012BE5
:10478000064B0CBF4FF400424FF000429A6170BDDF
:104790003C37002044370020000402400000024063
:1047A0000379312B40F0058101236B700378412B95
:1047B0007FF474AF43784D2B00F0FB8043784D2B92
:1047C0007FF46CAF8378312B38D1C37A312B05D18C
:1047D000012323700378412B7FF460AFC37A302B21
:1047E00005D1002323700378412B7FF457AF037B5F
:1047F000312B09D1012363700378412B7FF44EAF35
:1048000043784D2B7FF44AAF037B302B09D1002333
:1048100063700378412B7FF441AF43784D2B7FF4D5
:104820003DAF437B312B09D10123A3700378412B8A
:104830007FF434AF43784D2B7FF430AF8378312B46
:104840000CD1437B302B09D10023A3700378412B7B
:104850007FF424AF43784D2B7FF420AF8378312B46
:104860000CD1837B312B09D10123E3700378412BD9
:104870007FF414AF43784D2B7FF410AF8378312B46
:104880000CD1837B302B09D10023E3700378412BBB
:104890007FF404AF43784D2B7FF400AF8378312B46
:1048A0000CD1C37B312B09D1012323710378412B18
:1048B0007FF4F4AE43784D2B7FF4F0AE8378312B48
:1048C0000CD1C37B302B09D1002323710378412BFA
:1048D0007FF4E4AE43784D2B7FF4E0AE8378312B48
:1048E0000CD1037C312B09D1012363710378412B57
:1048F0007FF4D4AE43784D2B7FF4D0AE8378312B48
:104900000CD1037C302B09D1002363710378412B38
:104910007FF4C4AE43784D2B7FF4C0AE8378312B47
:104920000CD1437C312B09D10123A3710378412B96
:104930007FF4B4AE43784D2B7FF4B0AE8378312B47
:104940000CD1437C302B09D10023A3710378412B78
:104950007FF4A4AE43784D2B7FF4A0AE8378312B47
:104960000CD1837C312B09D10123E3710378412BD6
:104970007FF494AE43784D2B7FF490AE8378312B47
:104980000CD1837C302B09D10023E3710378412BB8
:104990007FF484AE43784D2B7FF480AE694E33783C
:1049A000012B7FF47BAE6848FFF74CFE0023337089
:1049B00074E60379302B09D100236B700378412B07
:1049C0007FF46CAE43784D2B7FF4F8AE4379312BF6
:1049D00009D10123AB700378412B7FF45FAE43789C
:1049E0004D2B7FF4EBAE8378312B0CD14379302BF8
:1049F00009D10023AB700378412B7FF44FAE43788D
:104A00004D2B7FF4DBAE8378312B0CD18379312BA6
:104A100009D10123EB700378412B7FF43FAE43783B
:104A20004D2B7FF4CBAE8378312B0CD18379302B97
:104A300009D10023EB700378412B7FF42FAE43782C
:104A40004D2B7FF4BBAE8378312B0CD1C379312B46
:104A500009D101232B710378412B7FF41FAE4378DA
:104A60004D2B7FF4ABAE8378312B0CD1C379302B37
:104A700009D100232B710378412B7FF40FAE4378CB
:104A80004D2B7FF49BAE8378312B0CD1037A312BE5
:104A900009D101236B710378412B7FF4FFAD43787B
:104AA0004D2B7FF48BAE8378312B0CD1037A302BD6
:104AB00009D100236B710378412B7FF4EFAD43786C
:104AC0004D2B7FF47BAE8378312B0CD1437A312B85
:104AD00009D10123AB710378412B7FF4DFAD43781B
:104AE0004D2B7FF46BAE8378312B0CD1437A302B76
:104AF00009D10023AB710378412B7FF4CFAD43780C
:104B00004D2B7FF45BAE8378312B0CD1837A312B24
:104B100009D10123EB710378412B7FF4BFAD4378BA
:104B20004D2B7FF44BAE8378312B7FF447AE837AE5
:104B3000302B7FF443AE0023EB710378412B3FF41D
:104B40003DAEABE5D1160020D67700082DE9F34144
:104B5000012707EB80044FEAC408054608F54070BA
:104B60000E46019201F00AF91728044619D007D819
:104B7000019A002800F08A8013287ED0012462E088
:104B80001C28FBD14B482946FFF726FD284600F09C
:104B9000C9FC0128044656D147482946FFF71CFDA9
:104BA00051E008F50078404601F0E8F8C30707D562
:104BB00042482946FFF710FD3946404601F00CF9FE
:104BC000284601F0D2F90028D8D042F204028242ED
:104BD00028BF024692B23146284600F071FD041EFD
:104BE00031DD37490422304601F01AFC18B128465D
:104BF00000F098FCC2E7341D32490722204601F03C
:104C00000FFC20B93049304601F07FFC08E02F4905
:104C10000322204601F004FCC8B93046FFF7F4FC3B
:104C20003046FBF75FFC002780464745DFD0A8EB06
:104C3000070292B2F119284600F0B8FC041E1ADAF5
:104C4000284600F069FB204602B0BDE8F08120490B
:104C50000422204601F0E4FB58B9741D1D4B1A488C
:104C60001C601322214601F058FC2046FFF7F6FC99
:104C7000D3E71949C7E72744D7E718482946FFF77C
:104C8000ABFC284600F018FC0446DCE7144801920F
:104C90002946FFF7A1FC2346019A3946284600F031
:104CA00079FB85420446CED101460E48FFF794FCBD
:104CB00064E700BFFE7700080D780008D977000888
:104CC000E8770008ED7700084C370020F5770008FA
:104CD000F9770008D8360020BB8900081978000849
:104CE000307800083E78000830B50F490F4C104D61
:104CF000104800230B7023702B70026843680B7000
:104D000081682970C068207089B0C0B2C9B20190B2
:104D10000091DBB20849D2B203A801F099FB03A8C5
:104D2000FFF790FC09B030BD393700203B37002039
:104D30003A370020000003084A78000884B038B5EC
:104D4000044605A880E80E00FCF7D6FD254BB322EB
:104D50000025DA6002210520FCF758FE9DF81A2094
:104D60002B4621460220FCF70BFE9DF81B202B460C
:104D7000211D0220FCF704FE9DF81C202B4604F1A7
:104D800008010220FCF7FCFD9DF81D202B4604F1D4
:104D90000C010220FCF7F4FD9DF822202B4604F1C3
:104DA00010010220FCF7ECFD9DF823202B4604F1B6
:104DB00014010220FCF7E4FD9DF824202B4604F1A9
:104DC00018010220FCF7DCFD9DF825202B4604F19C
:104DD0001C010220FCF7D4FDBDE8384004B0FCF70C
:104DE0009DBD00BF003C0240F0B5194D194E1A4F51
:104DF0001A4C1B491B4887B000222A7032703A7047
:104E000005923B4605AACDE9006501F041FB9DF8FE
:104E10001430A373A3713B78E373E3713378237485
:104E20002B78637201236374E06821696B4603C3C6
:104E3000A18AA27D9A70198021686268A3680A48D5
:104E4000FFF77CFFC820FCF75FFC07B0F0BD00BF98
:104E50003B3700203A37002039370020F00000208F
:104E6000587800086637002000000308094A0A4BFA
:104E7000116899715168D97191681972D168597224
:104E8000116999735169D97391691974D2695A7406
:104E9000704700BF00000308F000002010B594B078
:104EA000102200210AA801F0CBFA1422002103A845
:104EB00001F0C6FA224B002101911A6C42F0805297
:104EC0001A641B6C1F4A03F080530193019B0291EB
:104ED000136823F4404343F400431360136803F45E
:104EE00040430293029B01224FF48033CDE9082313
:104EF00002244FF48003CDE90E4319214FF4A87327
:104F00000420CDE910130723CDE9120308A8FDF70B
:104F1000C5FB08B172B6FEE70F23CDE903344FF4A9
:104F20008053CDE906300590214603A8FDF79AFD90
:104F300008B172B6FEE7FDF761FD14B010BD00BF09
:104F4000003802400070004080B594B0FCF7B0FB20
:104F5000FFF7A4FF182200210DA801F071FA042028
:104F6000FFF7DCFA8020FFF7D9FA0120FFF7D6FA25
:104F70000220FFF7D3FAC548DFF83483C44DC54F8C
:104F8000DFF87493DFF874A34FF000538361C24BD2
:104F9000C8F81830C14BAB61002401264FF4005310
:104FA0000DA9CDE90D36CDE90F441194FEF76AFB4A
:104FB0000DA94046CDE90D641196FEF763FB48F25A
:104FC00018030DA94046CDE90D36CDE90F441194E3
:104FD000FEF758FB4FF2FF730DA92846CDE90D36B9
:104FE000CDE90F441194FEF74DFB142221460DA884
:104FF00001F026FA7B6C43F400337B647B6C03F492
:1050000000330593059BD9F80C000F21C0F3022053
:10501000FFF7CDFA0001C0B24FF000738AF8190310
:10502000A5F54045CAF800304AF20F430DA9ADF886
:105030003430284640F2F313CDE90F340E94FEF7D6
:105040002BFC2B6843F080032B60FBF7A9FA9448F4
:10505000944984624FF48273C0E900134FF4007CDA
:105060000823C0E906C30A23C0E90244C0E9044496
:10507000C0E90844C362FDF77DFE044608B172B67C
:10508000FEE701461C220DA801F0DAF9182221469C
:1050900007A801F0D5F97B6C43F010037B647B6CAF
:1050A00003F0100306933046069BFFF737FA4FF4E0
:1050B000C0620223CDE907230323CDE9093407A900
:1050C000072340460C930B94FEF7DCFAD9F80C004A
:1050D0002146C0F30220FFF76AFA0001C0B2202384
:1050E0008AF82503CAF804304FF4E133CDE90D34D2
:1050F0000C23CDE91134CDE90F4413946A4C0DA96A
:105100002046FEF715FC2369684A23F49043236187
:10511000636923F02A036361E36843F40053E360A7
:10512000EB6843F00103EB602B6843F001032B6055
:10513000E36843F40053E36052E8003F43F0200388
:1051400042E80034002CF7D1224608215848FCF7E9
:105150004BFD0120FCF7D8FA012208215448FCF746
:1051600043FD4FF47A70FCF7CFFA5249524800F0F1
:105170008BFF5249524800F099FF5249524800F0C3
:10518000ABFF524A106851680DAB03C30DA9084626
:1051900000F0F5FFFFF76AFE4D4B9A79FF2A1CD10C
:1051A000A822DA71DA73C021012299735A741C742F
:1051B000FA20997158721969D8681C726A4603C23C
:1051C000988A997D9170108019685A6841489B6847
:1051D000FFF7B4FD6420FCF797FA3D483E4D01F01F
:1051E0000BF83B49002001F0A1F84FF47A70FCF76E
:1051F0008BFA0024002350220121184600F0CAF83F
:10520000364E3070002000F057F93070344E354F74
:105210004FF4427000F0B2FD142819D007AA0421FF
:10522000002000F0BBFA9DF81F309DF81D209DF86E
:105230001C1000932C489DF81E30FFF7CDF92B4928
:1052400050220020FFF782FC002000F065F8D1E733
:105250000520FCF759FA2B78012B07D13146384647
:105260002C7001F052F93046FFF7F8F9204B1A780C
:10527000012A02D11C70FFF737FD1E4B1A78012A54
:10528000C6D11C70FFF7B0FDC1E700BF00080240A7
:105290000004024000380240000018800000FFF7C0
:1052A000E036002000300140001001400C100140A9
:1052B00000000240494500083945000899450008AA
:1052C0006D45000885450008594500087B780008B1
:1052D000F000002000000308D316002065370020EE
:1052E000663700204C37002068780008D41600206C
:1052F000D0160020D216002000ED00E000E100E012
:105300000268034B9A4201D1FCF7ECB9704700BF29
:105310000000014072B6FEE70828F8B504462DD813
:10532000470107F1080607F584771021384600F099
:1053300053FD384600F022FD05460028F9D11F2113
:1053400006F5007000F048FD0E490123A3400A88CD
:10535000DB431BB21A400A800B4A11880B401380B2
:105360000A4B23F814500A4B1D5506F5407630467B
:1053700000F004FD0028FAD10120F8BD4FF0FF3005
:10538000FBE700BF80370020823700208C370020E9
:105390008437002008282DE9F34104468846174643
:1053A0001D467CD8012905D08B1E022B10D96FF029
:1053B00004000AE004220DEB02014FF4706000F0DB
:1053C0003DFD019B23B96FF0020002B0BDE8F08102
:1053D000680757D42DB1B8F1010F50D0B8F1020FC2
:1053E00053D020466601FFF797FF083625F00F01DE
:1053F00041EA0801304600F0EFFC6FB9294A1788EE
:105400007B1C9BB24FF6F0718B4209BF4FF44043B7
:10541000138013804FF6EF77390A06F5806000F0AD
:10542000DBFCF9B206F5A06006F5807700F0D4FC4D
:105430000121384600F0D0FC384600F09FFC0028DF
:10544000FAD119490123A3400A88DB431BB205F0B6
:1054500001051A40A5401543144A0D8011880B40E0
:105460001380134B23F81400124B185506F54076A1
:10547000304600F083FC0028FAD060B2A5E715F0B2
:10548000210FAED16FF005009FE7A9066BB201D5E1
:10549000002BF7DAEA06A4D5002BA2DBF2E74FF0E7
:1054A000FF3092E7EC010020803700208237002097
:1054B0008C37002084370020082870B5054627D88F
:1054C00044010834204600F059FC00F00F00012888
:1054D00021D104F54076304600F050FC13281DD150
:1054E00004F580740221204600F076FC204600F08E
:1054F00045FC0028FAD1304600F040FC142801D1C8
:10550000012004E02846FFF707FF6FF0030070BD9D
:105510004FF0FF30FBE76FF00400F8E76FF0020098
:10552000F5E70000082870B5054635D84401083471
:10553000204600F023FC00F00F0001282FD104F5D5
:1055400080760821304600F047FC304600F016FC1B
:105550000028FAD11349012303FA05F20B8823EA44
:1055600002030B80104B1B882B41DA0713D404F580
:10557000407604F50074304600F000FC08B90120C4
:1055800009E0204600F0FAFB0307F4D52846FFF7B0
:10559000C3FE6FF00C0070BD4FF0FF30FBE76FF003
:1055A0000400F8E7823700208037002008282DE922
:1055B000F84F06468846924675D845010835284674
:1055C00000F0DCFB00F00F0001286FD1BAF1000FF2
:1055D0006FD005F54079484600F0D0FB172801D080
:1055E0001C2832D1344F3B883341D90711D505F5FA
:1055F0000074204600F0C2FBC20629D510212046C7
:1056000000F0EAFB012303FA06F23B8823EA0203D7
:105610003B8005F5F85000F0B1FB83029CB2544585
:1056200028BF54464FF0010A0AFA06FA304600F045
:1056300079FC8346484600F0A1FB17281F4B12D087
:105640001C2810D03046FFF767FE6FF0060002E01E
:10565000030702D40020BDE8F88F3046FFF75CFE58
:105660006FF00C00F7E71A8812EA0A0F18D05C45B1
:10567000F0D841463046224605F5807500F098FC8A
:105680002021284600F0A8FB284600F077FB0028E0
:10569000FAD13B884AEA030AA7F800A02046DAE7D5
:1056A0005C45C3D8E5E74FF0FF30D4E76FF0040066
:1056B000D1E76FF00D00CEE7823700208037002061
:1056C00008282DE9F74F8346884617465AD84501E2
:1056D0000835284600F052FB00F00F06012E54D189
:1056E000002F55D005F5F05000F048FB06FA0BF6F8
:1056F000009005F5407905F5F85A584600F035FC5C
:105700000446484600F03AFB172815D01C280BD158
:10571000DCB9584600F006FC0190504600F02EFB24
:105720000199B1EB802F07D15846FFF7F5FD6FF0D7
:10573000060003B0BDE8F08F174B1988314202D044
:105740001CB92046F5E7002CD7D0009B980280B208
:10575000874228BF0746A742384628BF204687B25F
:10576000414658463A4605F5807500F050FC402108
:10577000284600F031FB284600F000FB0028FAD153
:105780003846D6E74FF0FF30D3E76FF00400D0E79C
:105790006FF00D00CDE700BF803700200828F8B576
:1057A0000446164600F28C800C2900F28C80DFE85B
:1057B00001F007121B22333E8A4A5B60636A7B005A
:1057C000012505EB8000C00000F0D8FA20F00F00A2
:1057D00030702846F8BD012505EB8000C00000F5BB
:1057E000B05000F0CBFAF3E7012505EB8000C000D4
:1057F00000F5A850F5E7012505EB8004E40004F569
:10580000905000F0BBFA074604F5985000F0B6FA45
:1058100000EB07203080DCE70422012512FB00505A
:10582000C000314600F5406000F008FBD1E70125DB
:1058300005EB8004E40004F5805000F09FFA074671
:1058400004F58850E2E744010834204600F096FA57
:1058500000F00F05012D02D06FF00405B9E704F543
:105860003C5000F08BFAD5E700F05CFB308001255E
:10587000AFE700F07AFBF9E7012505EB8000C000F7
:1058800000F54070ADE7012505EB8000C00000F099
:1058900075FAC30703D5204600F067FBBAE70B4B48
:1058A00033F81430338094E7012505EB8000C00005
:1058B00000F064FAA842CFD0054B1B5D337088E737
:1058C0004FF0FF3585E76FF0010582E78C37002048
:1058D0008437002082B00C4B002100915A6C42F4B6
:1058E00080425A645A6C02F480420092009A0191FC
:1058F0001A6C42F080521A641B6C03F080530193BF
:10590000019B02B0704700BF0038024010B504464A
:1059100088B01422002103A800F092FD2268184BE1
:105920009A422AD103F58433002401945A6C154815
:1059300042F480525A645A6C02F480520192019AE5
:1059400002941A6B42F001021A631B6B03F001030D
:105950000293E022029B0223CDE9032303210523C6
:10596000CDE9061303A9FCF777F823202246214648
:10597000FBF7F0FE2320FBF71FFF08B010BD00BFB0
:10598000003001400000024070B588B000241D4B7B
:1059900002945A6C1C4D42F001025A645B6C03F095
:1059A000010301A90293064603A8029BFDF70CF927
:1059B000FDF7FAF8154B2B6040F2E733EB60144B20
:1059C000B0FBF3F00138686028462C61AC60AC6134
:1059D000FDF72AFE044680B92846FDF7FFFC044681
:1059E00058B91920FBF7E8FE0F2E09D82246314698
:1059F0001920FBF7AFFE074B1E60204608B070BDB4
:105A00000124FAE7003802409C37002000000140E2
:105A100040420F00EC00002008B5FDF7F5F8FEE766
:105A2000FEE7FEE7FEE7FEE7704770477047704706
:105A3000094B1A69D2070CD508496FF001021A61A7
:105A40004B691A04DB4302F0005203F40053134382
:105A50008B610348FDF7F8BC004401400008024098
:105A60009C3700200148FDF729BC00BFE03600202C
:105A70009B4B9C48596802789B4BC9B20D2999549D
:105A800007D00132D2B2182A40F0278100230370D8
:105A9000704700220270954A012111701A78532A2A
:105AA00008D15A78452A0BD19B78542B08D1904BBA
:105AB00019707047472A04D0412A2CD0492A32D085
:105AC00070475A78452A04D19A78542A01D1894AD4
:105AD00011705A78572AF3D19A78312A40F0A2806F
